{
  "_format": "hh-sol-artifact-1",
  "contractName": "EvidenceRegistry",
  "sourceName": "contracts/EvidenceRegistry.sol",
  "abi": [
    {
      "inputs": [
        {
          "internalType": "address",
          "name": "user",
          "type": "address"
        },
        {
          "internalType": "uint256",
          "name": "index",
          "type": "uint256"
        }
      ],
      "name": "getEvidence",
      "outputs": [
        {
          "internalType": "string",
          "name": "",
          "type": "string"
        },
        {
          "internalType": "string",
          "name": "",
          "type": "string"
        },
        {
          "internalType": "uint256",
          "name": "",
          "type": "uint256"
        }
      ],
      "stateMutability": "view",
      "type": "function"
    },
    {
      "inputs": [
        {
          "internalType": "address",
          "name": "user",
          "type": "address"
        }
      ],
      "name": "getEvidenceCount",
      "outputs": [
        {
          "internalType": "uint256",
          "name": "",
          "type": "uint256"
        }
      ],
      "stateMutability": "view",
      "type": "function"
    },
    {
      "inputs": [
        {
          "internalType": "address",
          "name": "",
          "type": "address"
        },
        {
          "internalType": "uint256",
          "name": "",
          "type": "uint256"
        }
      ],
      "name": "logs",
      "outputs": [
        {
          "internalType": "string",
          "name": "hash",
          "type": "string"
        },
        {
          "internalType": "string",
          "name": "metadata",
          "type": "string"
        },
        {
          "internalType": "uint256",
          "name": "timestamp",
          "type": "uint256"
        }
      ],
      "stateMutability": "view",
      "type": "function"
    },
    {
      "inputs": [
        {
          "internalType": "string",
          "name": "hash",
          "type": "string"
        },
        {
          "internalType": "string",
          "name": "metadata",
          "type": "string"
        }
      ],
      "name": "submitEvidence",
      "outputs": [],
      "stateMutability": "nonpayable",
      "type": "function"
    },
    {
      "inputs": [
        {
          "internalType": "string",
          "name": "hash",
          "type": "string"
        },
        {
          "internalType": "string",
          "name": "metadata",
          "type": "string"
        },
        {
          "components": [
            {
              "components": [
                {
                  "internalType": "uint256",
                  "name": "X",
                  "type": "uint256"
                },
                {
                  "internalType": "uint256",
                  "name": "Y",
                  "type": "uint256"
                }
              ],
              "internalType": "struct Pairing.G1Point",
              "name": "a",
              "type": "tuple"
            },
            {
              "components": [
                {
                  "internalType": "uint256[2]",
                  "name": "X",
                  "type": "uint256[2]"
                },
                {
                  "internalType": "uint256[2]",
                  "name": "Y",
                  "type": "uint256[2]"
                }
              ],
              "internalType": "struct Pairing.G2Point",
              "name": "b",
              "type": "tuple"
            },
            {
              "components": [
                {
                  "internalType": "uint256",
                  "name": "X",
                  "type": "uint256"
                },
                {
                  "internalType": "uint256",
                  "name": "Y",
                  "type": "uint256"
                }
              ],
              "internalType": "struct Pairing.G1Point",
              "name": "c",
              "type": "tuple"
            }
          ],
          "internalType": "struct Verifier.Proof",
          "name": "proof",
          "type": "tuple"
        },
        {
          "internalType": "uint256[]",
          "name": "input",
          "type": "uint256[]"
        }
      ],
      "name": "submitEvidenceWithProof",
      "outputs": [],
      "stateMutability": "nonpayable",
      "type": "function"
    }
  ],
  "bytecode": "0x6080604052348015600f57600080fd5b5061219b8061001f6000396000f3fe608060405234801561001057600080fd5b50600436106100575760003560e01c806323ad7ccf1461005c5780638bb6d133146100785780638c0d89cd146100a8578063b254ee4a146100c4578063ee7bafbb146100f6575b600080fd5b61007660048036038101906100719190611959565b610128565b005b610092600480360381019061008d9190611a74565b610234565b60405161009f9190611ab0565b60405180910390f35b6100c260048036038101906100bd9190611acb565b61027f565b005b6100de60048036038101906100d99190611b43565b61033d565b6040516100ed93929190611c02565b60405180910390f35b610110600480360381019061010b9190611b43565b6104f9565b60405161011f93929190611c02565b60405180910390f35b60006101348284610650565b14610174576040517f08c379a000000000000000000000000000000000000000000000000000000000815260040161016b90611c93565b60405180910390fd5b6000803373ffffffffffffffffffffffffffffffffffffffff1673ffffffffffffffffffffffffffffffffffffffff1681526020019081526020016000206040518060600160405280868152602001858152602001428152509080600181540180825580915050600190039060005260206000209060030201600090919091909150600082015181600001908161020b9190611ebf565b5060208201518160010190816102219190611ebf565b5060408201518160020155505050505050565b60008060008373ffffffffffffffffffffffffffffffffffffffff1673ffffffffffffffffffffffffffffffffffffffff168152602001908152602001600020805490509050919050565b6000803373ffffffffffffffffffffffffffffffffffffffff1673ffffffffffffffffffffffffffffffffffffffff168152602001908152602001600020604051806060016040528084815260200183815260200142815250908060018154018082558091505060019003906000526020600020906003020160009091909190915060008201518160000190816103169190611ebf565b50602082015181600101908161032c9190611ebf565b506040820151816002015550505050565b6060806000806000808773ffffffffffffffffffffffffffffffffffffffff1673ffffffffffffffffffffffffffffffffffffffff168152602001908152602001600020858154811061039357610392611f91565b5b90600052602060002090600302016040518060600160405290816000820180546103bc90611ce2565b80601f01602080910402602001604051908101604052809291908181526020018280546103e890611ce2565b80156104355780601f1061040a57610100808354040283529160200191610435565b820191906000526020600020905b81548152906001019060200180831161041857829003601f168201915b5050505050815260200160018201805461044e90611ce2565b80601f016020809104026020016040519081016040528092919081815260200182805461047a90611ce2565b80156104c75780601f1061049c576101008083540402835291602001916104c7565b820191906000526020600020905b8154815290600101906020018083116104aa57829003601f168201915b505050505081526020016002820154815250509050806000015181602001518260400151935093509350509250925092565b6000602052816000526040600020818154811061051557600080fd5b90600052602060002090600302016000915091505080600001805461053990611ce2565b80601f016020809104026020016040519081016040528092919081815260200182805461056590611ce2565b80156105b25780601f10610587576101008083540402835291602001916105b2565b820191906000526020600020905b81548152906001019060200180831161059557829003601f168201915b5050505050908060010180546105c790611ce2565b80601f01602080910402602001604051908101604052809291908181526020018280546105f390611ce2565b80156106405780601f1061061557610100808354040283529160200191610640565b820191906000526020600020905b81548152906001019060200180831161062357829003601f168201915b5050505050908060020154905083565b6000807f30644e72e131a029b85045b68181585d2833e84879b9709143e1f593f000000190506000610680610817565b9050806080015151600186516106969190611fef565b146106a057600080fd5b60006040518060400160405280600081526020016000815250905060005b865181101561078957838782815181106106db576106da611f91565b5b602002602001015110610723576040517f08c379a000000000000000000000000000000000000000000000000000000000815260040161071a9061206f565b60405180910390fd5b61077a82610775856080015160018561073c9190611fef565b8151811061074d5761074c611f91565b5b60200260200101518a858151811061076857610767611f91565b5b6020026020010151610d0b565b610dad565b915080806001019150506106be565b506107b38183608001516000815181106107a6576107a5611f91565b5b6020026020010151610dad565b90506107f9856000015186602001516107cb84610e75565b85604001516107dd8a60400151610e75565b87606001516107ef8960000151610e75565b8960200151610f1a565b6108095760019350505050610811565b600093505050505b92915050565b61081f611437565b60405180604001604052807f059b0271c65510016fc5188125caef711cde4e09397b03aace4aaf6443aede7b81526020017f174ee92b20247aee4b03d2e632f5286193a775144bb96965599c899d56b8600d8152508160000181905250604051806040016040528060405180604001604052807f12bf0e27547775ccb6b96e88a45c6e78ba4afb37bb22fbe0a71ef3625c67dbed81526020017f14a95af925e6ed7d658b28d6658303de5800fa81522695e51c9b0debd8f5e182815250815260200160405180604001604052807f017656f31499f79ff6ba64de6e3ca57890572ac0c813c2d8a2d9c8e5af2426d281526020017f0b8dbb823a6d27dff7b3fc11c9df4281e27edc76afec85aa4766a52683f9698a8152508152508160200181905250604051806040016040528060405180604001604052807f2e9c564f09f384a0fe3be0f403f925667aa195d0584fe24fef5b3ff08ee0651b81526020017f080305245d284a558d1dfeed45b54cae8fa00114d3800db4372b9e90fa91f287815250815260200160405180604001604052807f1f15fa483e4aaa996436abc7ec5a443a725d6ff853261186b444e44c3fae4ad681526020017f1b1eb568a87d5bc8f350590a818d45491a235aa7db6cd9b34859ed7b2950443a8152508152508160400181905250604051806040016040528060405180604001604052807f0ed91ce28c661b32132545b3d4bd2e11b9b07a4aa608b3518bb6c7881a4fe18781526020017f1d3dab9cb4b39e137407c85905534056e5a5f91ff1bee2573dce8fc4d51decce815250815260200160405180604001604052807f0ae2bf085931b354ed9097d344cb3e2d4c834773b1866199dc5ecbb4fafa059981526020017f2eaad81c2387158485bc12de9e04ffe80b15bf66c44bc7e46430fe36755567a68152508152508160600181905250600467ffffffffffffffff811115610ae657610ae5611575565b5b604051908082528060200260200182016040528015610b1f57816020015b610b0c61147e565b815260200190600190039081610b045790505b50816080018190525060405180604001604052807f0c9f254df08016fa062fc24e2cf5efb0a3a43c98ebe31bd21b1d4bc18c20819f81526020017f05f06e51da639d6c8fe2c520ede9ca0938cf76b2d4ea1ed599ddfd88a4e03af38152508160800151600081518110610b9557610b94611f91565b5b602002602001018190525060405180604001604052807f1ebb7f1d21ba3fff47ef5e5304ee907171b5b2323f72d23337874eb613ccd92581526020017f1cf8be0a97f1aadd10efcc8090f76dac03bbe056fb0bd84ec684e642e337cab78152508160800151600181518110610c0d57610c0c611f91565b5b602002602001018190525060405180604001604052807f0c1405210943c0699e8134f241a70308de61148f063fff2041acb51b146846bd81526020017f2877cb08ab0808ef5ed8fe1b33688e8805c7e2e44ce6508499c51e3b2b0776aa8152508160800151600281518110610c8557610c84611f91565b5b602002602001018190525060405180604001604052807f0fa09bbdddea34daaa917ac5c88a4488aa124341bb3f445abd9c48ba4cf0af2881526020017f0a29f217c44c4bb083b66c0a4364dab36ed7698611d372cd6ec72901080089a38152508160800151600381518110610cfd57610cfc611f91565b5b602002602001018190525090565b610d1361147e565b610d1b611498565b836000015181600060038110610d3457610d33611f91565b5b602002018181525050836020015181600160038110610d5657610d55611f91565b5b6020020181815250508281600260038110610d7457610d73611f91565b5b602002018181525050600060608360808460076107d05a03fa90508060008103610d9a57fe5b5080610da557600080fd5b505092915050565b610db561147e565b610dbd6114ba565b836000015181600060048110610dd657610dd5611f91565b5b602002018181525050836020015181600160048110610df857610df7611f91565b5b602002018181525050826000015181600260048110610e1a57610e19611f91565b5b602002018181525050826020015181600360048110610e3c57610e3b611f91565b5b602002018181525050600060608360c08460066107d05a03fa90508060008103610e6257fe5b5080610e6d57600080fd5b505092915050565b610e7d61147e565b60007f30644e72e131a029b85045b68181585d97816a916871ca8d3c208c16d87cfd47905060008360000151148015610eba575060008360200151145b15610ede576040518060400160405280600081526020016000815250915050610f15565b604051806040016040528084600001518152602001828560200151610f0391906120be565b83610f0e91906120ef565b8152509150505b919050565b600080600467ffffffffffffffff811115610f3857610f37611575565b5b604051908082528060200260200182016040528015610f7157816020015b610f5e61147e565b815260200190600190039081610f565790505b5090506000600467ffffffffffffffff811115610f9157610f90611575565b5b604051908082528060200260200182016040528015610fca57816020015b610fb76114dc565b815260200190600190039081610faf5790505b5090508a82600081518110610fe257610fe1611f91565b5b6020026020010181905250888260018151811061100257611001611f91565b5b6020026020010181905250868260028151811061102257611021611f91565b5b6020026020010181905250848260038151811061104257611041611f91565b5b6020026020010181905250898160008151811061106257611061611f91565b5b6020026020010181905250878160018151811061108257611081611f91565b5b602002602001018190525085816002815181106110a2576110a1611f91565b5b602002602001018190525083816003815181106110c2576110c1611f91565b5b60200260200101819052506110d782826110e7565b9250505098975050505050505050565b600081518351146110f757600080fd5b600083519050600060068261110c9190612123565b905060008167ffffffffffffffff81111561112a57611129611575565b5b6040519080825280602002602001820160405280156111585781602001602082028036833780820191505090505b50905060005b838110156113d75786818151811061117957611178611f91565b5b6020026020010151600001518260006006846111959190612123565b61119f9190611fef565b815181106111b0576111af611f91565b5b6020026020010181815250508681815181106111cf576111ce611f91565b5b6020026020010151602001518260016006846111eb9190612123565b6111f59190611fef565b8151811061120657611205611f91565b5b60200260200101818152505085818151811061122557611224611f91565b5b60200260200101516000015160016002811061124457611243611f91565b5b60200201518260026006846112599190612123565b6112639190611fef565b8151811061127457611273611f91565b5b60200260200101818152505085818151811061129357611292611f91565b5b6020026020010151600001516000600281106112b2576112b1611f91565b5b60200201518260036006846112c79190612123565b6112d19190611fef565b815181106112e2576112e1611f91565b5b60200260200101818152505085818151811061130157611300611f91565b5b6020026020010151602001516001600281106113205761131f611f91565b5b60200201518260046006846113359190612123565b61133f9190611fef565b815181106113505761134f611f91565b5b60200260200101818152505085818151811061136f5761136e611f91565b5b60200260200101516020015160006002811061138e5761138d611f91565b5b60200201518260056006846113a39190612123565b6113ad9190611fef565b815181106113be576113bd611f91565b5b602002602001018181525050808060010191505061115e565b506113e0611502565b6000602082602086026020860160086107d05a03fa9050806000810361140257fe5b508061140d57600080fd5b60008260006001811061142357611422611f91565b5b602002015114159550505050505092915050565b6040518060a0016040528061144a61147e565b81526020016114576114dc565b81526020016114646114dc565b81526020016114716114dc565b8152602001606081525090565b604051806040016040528060008152602001600081525090565b6040518060600160405280600390602082028036833780820191505090505090565b6040518060800160405280600490602082028036833780820191505090505090565b60405180604001604052806114ef611524565b81526020016114fc611524565b81525090565b6040518060200160405280600190602082028036833780820191505090505090565b6040518060400160405280600290602082028036833780820191505090505090565b6000604051905090565b600080fd5b600080fd5b600080fd5b600080fd5b6000601f19601f8301169050919050565b7f4e487b7100000000000000000000000000000000000000000000000000000000600052604160045260246000fd5b6115ad82611564565b810181811067ffffffffffffffff821117156115cc576115cb611575565b5b80604052505050565b60006115df611546565b90506115eb82826115a4565b919050565b600067ffffffffffffffff82111561160b5761160a611575565b5b61161482611564565b9050602081019050919050565b82818337600083830152505050565b600061164361163e846115f0565b6115d5565b90508281526020810184848401111561165f5761165e61155f565b5b61166a848285611621565b509392505050565b600082601f8301126116875761168661155a565b5b8135611697848260208601611630565b91505092915050565b600080fd5b6000819050919050565b6116b8816116a5565b81146116c357600080fd5b50565b6000813590506116d5816116af565b92915050565b6000604082840312156116f1576116f06116a0565b5b6116fb60406115d5565b9050600061170b848285016116c6565b600083015250602061171f848285016116c6565b60208301525092915050565b600067ffffffffffffffff82111561174657611745611575565b5b602082029050919050565b600080fd5b60006117696117648461172b565b6115d5565b9050806020840283018581111561178357611782611751565b5b835b818110156117ac578061179888826116c6565b845260208401935050602081019050611785565b5050509392505050565b600082601f8301126117cb576117ca61155a565b5b60026117d8848285611756565b91505092915050565b6000608082840312156117f7576117f66116a0565b5b61180160406115d5565b90506000611811848285016117b6565b6000830152506040611825848285016117b6565b60208301525092915050565b60006101008284031215611848576118476116a0565b5b61185260606115d5565b90506000611862848285016116db565b6000830152506040611876848285016117e1565b60208301525060c061188a848285016116db565b60408301525092915050565b600067ffffffffffffffff8211156118b1576118b0611575565b5b602082029050602081019050919050565b60006118d56118d084611896565b6115d5565b905080838252602082019050602084028301858111156118f8576118f7611751565b5b835b81811015611921578061190d88826116c6565b8452602084019350506020810190506118fa565b5050509392505050565b600082601f8301126119405761193f61155a565b5b81356119508482602086016118c2565b91505092915050565b600080600080610160858703121561197457611973611550565b5b600085013567ffffffffffffffff81111561199257611991611555565b5b61199e87828801611672565b945050602085013567ffffffffffffffff8111156119bf576119be611555565b5b6119cb87828801611672565b93505060406119dc87828801611831565b92505061014085013567ffffffffffffffff8111156119fe576119fd611555565b5b611a0a8782880161192b565b91505092959194509250565b600073ffffffffffffffffffffffffffffffffffffffff82169050919050565b6000611a4182611a16565b9050919050565b611a5181611a36565b8114611a5c57600080fd5b50565b600081359050611a6e81611a48565b92915050565b600060208284031215611a8a57611a89611550565b5b6000611a9884828501611a5f565b91505092915050565b611aaa816116a5565b82525050565b6000602082019050611ac56000830184611aa1565b92915050565b60008060408385031215611ae257611ae1611550565b5b600083013567ffffffffffffffff811115611b0057611aff611555565b5b611b0c85828601611672565b925050602083013567ffffffffffffffff811115611b2d57611b2c611555565b5b611b3985828601611672565b9150509250929050565b60008060408385031215611b5a57611b59611550565b5b6000611b6885828601611a5f565b9250506020611b79858286016116c6565b9150509250929050565b600081519050919050565b600082825260208201905092915050565b60005b83811015611bbd578082015181840152602081019050611ba2565b60008484015250505050565b6000611bd482611b83565b611bde8185611b8e565b9350611bee818560208601611b9f565b611bf781611564565b840191505092915050565b60006060820190508181036000830152611c1c8186611bc9565b90508181036020830152611c308185611bc9565b9050611c3f6040830184611aa1565b949350505050565b7f496e76616c6964205a4b2070726f6f6600000000000000000000000000000000600082015250565b6000611c7d601083611b8e565b9150611c8882611c47565b602082019050919050565b60006020820190508181036000830152611cac81611c70565b9050919050565b7f4e487b7100000000000000000000000000000000000000000000000000000000600052602260045260246000fd5b60006002820490506001821680611cfa57607f821691505b602082108103611d0d57611d0c611cb3565b5b50919050565b60008190508160005260206000209050919050565b60006020601f8301049050919050565b600082821b905092915050565b600060088302611d757fffffffffffffffffffffffffffffffffffffffffffffffffffffffffffffffff82611d38565b611d7f8683611d38565b95508019841693508086168417925050509392505050565b6000819050919050565b6000611dbc611db7611db2846116a5565b611d97565b6116a5565b9050919050565b6000819050919050565b611dd683611da1565b611dea611de282611dc3565b848454611d45565b825550505050565b600090565b611dff611df2565b611e0a818484611dcd565b505050565b5b81811015611e2e57611e23600082611df7565b600181019050611e10565b5050565b601f821115611e7357611e4481611d13565b611e4d84611d28565b81016020851015611e5c578190505b611e70611e6885611d28565b830182611e0f565b50505b505050565b600082821c905092915050565b6000611e9660001984600802611e78565b1980831691505092915050565b6000611eaf8383611e85565b9150826002028217905092915050565b611ec882611b83565b67ffffffffffffffff811115611ee157611ee0611575565b5b611eeb8254611ce2565b611ef6828285611e32565b600060209050601f831160018114611f295760008415611f17578287015190505b611f218582611ea3565b865550611f89565b601f198416611f3786611d13565b60005b82811015611f5f57848901518255600182019150602085019450602081019050611f3a565b86831015611f7c5784890151611f78601f891682611e85565b8355505b6001600288020188555050505b505050505050565b7f4e487b7100000000000000000000000000000000000000000000000000000000600052603260045260246000fd5b7f4e487b7100000000000000000000000000000000000000000000000000000000600052601160045260246000fd5b6000611ffa826116a5565b9150612005836116a5565b925082820190508082111561201d5761201c611fc0565b5b92915050565b7f496e70757420746f6f206c617267650000000000000000000000000000000000600082015250565b6000612059600f83611b8e565b915061206482612023565b602082019050919050565b600060208201905081810360008301526120888161204c565b9050919050565b7f4e487b7100000000000000000000000000000000000000000000000000000000600052601260045260246000fd5b60006120c9826116a5565b91506120d4836116a5565b9250826120e4576120e361208f565b5b828206905092915050565b60006120fa826116a5565b9150612105836116a5565b925082820390508181111561211d5761211c611fc0565b5b92915050565b600061212e826116a5565b9150612139836116a5565b9250828202612147816116a5565b9150828204841483151761215e5761215d611fc0565b5b509291505056fea26469706673582212207a5d0efb263891a27433c1583e3e29849358f76c5ed97673eed72f9a8110fa9164736f6c634300081c0033",
  "linkReferences": {},
  "deployedLinkReferences": {}
}