{
  "_format": "hh-sol-artifact-1",
  "contractName": "EvidenceRegistry",
  "sourceName": "contracts/EvidenceRegistry.sol",
  "abi": [
    {
      "anonymous": false,
      "inputs": [
        {
          "indexed": true,
          "internalType": "address",
          "name": "submitter",
          "type": "address"
        },
        {
          "indexed": false,
          "internalType": "string",
          "name": "hash",
          "type": "string"
        },
        {
          "indexed": false,
          "internalType": "string",
          "name": "metadata",
          "type": "string"
        },
        {
          "indexed": false,
          "internalType": "uint256",
          "name": "timestamp",
          "type": "uint256"
        }
      ],
      "name": "EvidenceSubmitted",
      "type": "event"
    },
    {
      "inputs": [
        {
          "internalType": "address",
          "name": "user",
          "type": "address"
        },
        {
          "internalType": "uint256",
          "name": "index",
          "type": "uint256"
        }
      ],
      "name": "getEvidence",
      "outputs": [
        {
          "internalType": "string",
          "name": "",
          "type": "string"
        },
        {
          "internalType": "string",
          "name": "",
          "type": "string"
        },
        {
          "internalType": "uint256",
          "name": "",
          "type": "uint256"
        }
      ],
      "stateMutability": "view",
      "type": "function"
    },
    {
      "inputs": [
        {
          "internalType": "address",
          "name": "user",
          "type": "address"
        }
      ],
      "name": "getEvidenceCount",
      "outputs": [
        {
          "internalType": "uint256",
          "name": "",
          "type": "uint256"
        }
      ],
      "stateMutability": "view",
      "type": "function"
    },
    {
      "inputs": [
        {
          "internalType": "address",
          "name": "",
          "type": "address"
        },
        {
          "internalType": "uint256",
          "name": "",
          "type": "uint256"
        }
      ],
      "name": "logs",
      "outputs": [
        {
          "internalType": "string",
          "name": "hash",
          "type": "string"
        },
        {
          "internalType": "string",
          "name": "metadata",
          "type": "string"
        },
        {
          "internalType": "uint256",
          "name": "timestamp",
          "type": "uint256"
        }
      ],
      "stateMutability": "view",
      "type": "function"
    },
    {
      "inputs": [
        {
          "internalType": "string",
          "name": "hash",
          "type": "string"
        },
        {
          "internalType": "string",
          "name": "metadata",
          "type": "string"
        }
      ],
      "name": "submitEvidence",
      "outputs": [],
      "stateMutability": "nonpayable",
      "type": "function"
    },
    {
      "inputs": [
        {
          "internalType": "string",
          "name": "hash",
          "type": "string"
        },
        {
          "internalType": "string",
          "name": "metadata",
          "type": "string"
        },
        {
          "components": [
            {
              "components": [
                {
                  "internalType": "uint256",
                  "name": "X",
                  "type": "uint256"
                },
                {
                  "internalType": "uint256",
                  "name": "Y",
                  "type": "uint256"
                }
              ],
              "internalType": "struct Pairing.G1Point",
              "name": "a",
              "type": "tuple"
            },
            {
              "components": [
                {
                  "internalType": "uint256[2]",
                  "name": "X",
                  "type": "uint256[2]"
                },
                {
                  "internalType": "uint256[2]",
                  "name": "Y",
                  "type": "uint256[2]"
                }
              ],
              "internalType": "struct Pairing.G2Point",
              "name": "b",
              "type": "tuple"
            },
            {
              "components": [
                {
                  "internalType": "uint256",
                  "name": "X",
                  "type": "uint256"
                },
                {
                  "internalType": "uint256",
                  "name": "Y",
                  "type": "uint256"
                }
              ],
              "internalType": "struct Pairing.G1Point",
              "name": "c",
              "type": "tuple"
            }
          ],
          "internalType": "struct Verifier.Proof",
          "name": "proof",
          "type": "tuple"
        },
        {
          "internalType": "uint256[]",
          "name": "input",
          "type": "uint256[]"
        }
      ],
      "name": "submitEvidenceWithProof",
      "outputs": [],
      "stateMutability": "nonpayable",
      "type": "function"
    },
    {
      "inputs": [
        {
          "components": [
            {
              "components": [
                {
                  "internalType": "uint256",
                  "name": "X",
                  "type": "uint256"
                },
                {
                  "internalType": "uint256",
                  "name": "Y",
                  "type": "uint256"
                }
              ],
              "internalType": "struct Pairing.G1Point",
              "name": "a",
              "type": "tuple"
            },
            {
              "components": [
                {
                  "internalType": "uint256[2]",
                  "name": "X",
                  "type": "uint256[2]"
                },
                {
                  "internalType": "uint256[2]",
                  "name": "Y",
                  "type": "uint256[2]"
                }
              ],
              "internalType": "struct Pairing.G2Point",
              "name": "b",
              "type": "tuple"
            },
            {
              "components": [
                {
                  "internalType": "uint256",
                  "name": "X",
                  "type": "uint256"
                },
                {
                  "internalType": "uint256",
                  "name": "Y",
                  "type": "uint256"
                }
              ],
              "internalType": "struct Pairing.G1Point",
              "name": "c",
              "type": "tuple"
            }
          ],
          "internalType": "struct Verifier.Proof",
          "name": "proof",
          "type": "tuple"
        },
        {
          "internalType": "uint256[1]",
          "name": "input",
          "type": "uint256[1]"
        }
      ],
      "name": "verifyTx",
      "outputs": [
        {
          "internalType": "bool",
          "name": "r",
          "type": "bool"
        }
      ],
      "stateMutability": "view",
      "type": "function"
    }
  ],
  "bytecode": "0x6080604052348015600f57600080fd5b506122d88061001f6000396000f3fe608060405234801561001057600080fd5b50600436106100625760003560e01c806323ad7ccf146100675780638bb6d133146100835780638c0d89cd146100b3578063b254ee4a146100cf578063ee7bafbb14610101578063f48d772914610133575b600080fd5b610081600480360381019061007c91906119d9565b610163565b005b61009d60048036038101906100989190611af4565b6102c1565b6040516100aa9190611b30565b60405180910390f35b6100cd60048036038101906100c89190611b4b565b61030c565b005b6100e960048036038101906100e49190611bc3565b61041c565b6040516100f893929190611c82565b60405180910390f35b61011b60048036038101906101169190611bc3565b6105d8565b60405161012a93929190611c82565b60405180910390f35b61014d60048036038101906101489190611d78565b61072f565b60405161015a9190611dd5565b60405180910390f35b600061016f82846107f6565b146101af576040517f08c379a00000000000000000000000000000000000000000000000000000000081526004016101a690611e3c565b60405180910390fd5b6000803373ffffffffffffffffffffffffffffffffffffffff1673ffffffffffffffffffffffffffffffffffffffff168152602001908152602001600020604051806060016040528086815260200185815260200142815250908060018154018082558091505060019003906000526020600020906003020160009091909190915060008201518160000190816102469190612068565b50602082015181600101908161025c9190612068565b506040820151816002015550503373ffffffffffffffffffffffffffffffffffffffff167feb567dc38c6df5e0a5567c3d99692d5615b41aefe2e6815ea245b133b0f9da948585426040516102b393929190611c82565b60405180910390a250505050565b60008060008373ffffffffffffffffffffffffffffffffffffffff1673ffffffffffffffffffffffffffffffffffffffff168152602001908152602001600020805490509050919050565b6000803373ffffffffffffffffffffffffffffffffffffffff1673ffffffffffffffffffffffffffffffffffffffff168152602001908152602001600020604051806060016040528084815260200183815260200142815250908060018154018082558091505060019003906000526020600020906003020160009091909190915060008201518160000190816103a39190612068565b5060208201518160010190816103b99190612068565b506040820151816002015550503373ffffffffffffffffffffffffffffffffffffffff167feb567dc38c6df5e0a5567c3d99692d5615b41aefe2e6815ea245b133b0f9da9483834260405161041093929190611c82565b60405180910390a25050565b6060806000806000808773ffffffffffffffffffffffffffffffffffffffff1673ffffffffffffffffffffffffffffffffffffffff16815260200190815260200160002085815481106104725761047161213a565b5b906000526020600020906003020160405180606001604052908160008201805461049b90611e8b565b80601f01602080910402602001604051908101604052809291908181526020018280546104c790611e8b565b80156105145780601f106104e957610100808354040283529160200191610514565b820191906000526020600020905b8154815290600101906020018083116104f757829003601f168201915b5050505050815260200160018201805461052d90611e8b565b80601f016020809104026020016040519081016040528092919081815260200182805461055990611e8b565b80156105a65780601f1061057b576101008083540402835291602001916105a6565b820191906000526020600020905b81548152906001019060200180831161058957829003601f168201915b505050505081526020016002820154815250509050806000015181602001518260400151935093509350509250925092565b600060205281600052604060002081815481106105f457600080fd5b90600052602060002090600302016000915091505080600001805461061890611e8b565b80601f016020809104026020016040519081016040528092919081815260200182805461064490611e8b565b80156106915780601f1061066657610100808354040283529160200191610691565b820191906000526020600020905b81548152906001019060200180831161067457829003601f168201915b5050505050908060010180546106a690611e8b565b80601f01602080910402602001604051908101604052809291908181526020018280546106d290611e8b565b801561071f5780601f106106f45761010080835404028352916020019161071f565b820191906000526020600020905b81548152906001019060200180831161070257829003601f168201915b5050505050908060020154905083565b600080600167ffffffffffffffff81111561074d5761074c6115f5565b5b60405190808252806020026020018201604052801561077b5781602001602082028036833780820191505090505b50905060005b60018110156107ce5783816001811061079d5761079c61213a565b5b60200201518282815181106107b5576107b461213a565b5b6020026020010181815250508080600101915050610781565b5060006107db82866107f6565b036107ea5760019150506107f0565b60009150505b92915050565b6000807f30644e72e131a029b85045b68181585d2833e84879b9709143e1f593f000000190506000610826610987565b90508060800151516001865161083c9190612198565b1461084657600080fd5b60006040518060400160405280600081526020016000815250905060005b86518110156108f957838782815181106108815761088061213a565b5b60200260200101511061089357600080fd5b6108ea826108e585608001516001856108ac9190612198565b815181106108bd576108bc61213a565b5b60200260200101518a85815181106108d8576108d761213a565b5b6020026020010151610d8b565b610e2d565b91508080600101915050610864565b506109238183608001516000815181106109165761091561213a565b5b6020026020010151610e2d565b90506109698560000151866020015161093b84610ef5565b856040015161094d8a60400151610ef5565b876060015161095f8960000151610ef5565b8960200151610f9a565b6109795760019350505050610981565b600093505050505b92915050565b61098f6114b7565b60405180604001604052807f1472b0dd369f716e112c07751d0c27233043535734a5f825d9dd70626ed8a09381526020017f17c297c0f4e5b15a54307d795183cacf0d79259c6a238a330faf96c546c73d068152508160000181905250604051806040016040528060405180604001604052807f0e6e0769c74b8a8c9c2e312b6df84699970e581826d2d2e69d888e70e730fe9881526020017f2cb7b94216cb6f7434c6f9ea9b3ed618a9acd8e5af40809aa2369293eb1052ad815250815260200160405180604001604052807f12ef5bdac92f5611e89d65f082f447269bca3ca768e173fd1a19c74db032855281526020017f16f5276a4c1aa8a7a2c077fca6efdfe95dadd86abb182d947dd6d32fa311b1f18152508152508160200181905250604051806040016040528060405180604001604052807f1163f85fb7795e9ab3a2c12e2c55cc1ffe5a316a2f0fbb71d339bd47efc7a40f81526020017f0837db4cdcf2010655e8513969177c251d9b4cc00ee453a066bd9b909eafa713815250815260200160405180604001604052807f111e3f1185b538247d37d08c4410614a7f0f81094312a83d3073b6773de8281681526020017f0a54f1ed75793b05419e1ee9b2a572b173415dd1b3800b046a6e0a9e4aad71448152508152508160400181905250604051806040016040528060405180604001604052807f2f80edc2a8a62d8a82958200c3c769ca290f92425f6b05d4539e3415fa93137081526020017f27213c685a6b2a5600c7ccfb96ffc1beba263dd9b81f54899d9d6de991ea8eed815250815260200160405180604001604052807f0ee011d115eece7d8cb0c8d7f08d4d667d37368d82d7362334b414e39d861b4d81526020017f1fc601ecc0f214540bfdc1ee26f4ea7d9721eb4a18c75210f814b3aedf20952e8152508152508160600181905250600267ffffffffffffffff811115610c5657610c556115f5565b5b604051908082528060200260200182016040528015610c8f57816020015b610c7c6114fe565b815260200190600190039081610c745790505b50816080018190525060405180604001604052807f0b1307de8ddbb97b76988545de387e2991bb027ca557a1994e4956af9e56476b81526020017f2fadfd88cf2d866ce6c7fb975b11125afad3fee9c061dd467d13597b43f023868152508160800151600081518110610d0557610d0461213a565b5b602002602001018190525060405180604001604052807f1b30f531b72a0af9189530493b0d09af7f55198fa6600b1c8bbcef3c1020e56181526020017f17bc3a2ecf4934e7b225b745c6684a4759176651df0e48298e9a3e9b00a79fcb8152508160800151600181518110610d7d57610d7c61213a565b5b602002602001018190525090565b610d936114fe565b610d9b611518565b836000015181600060038110610db457610db361213a565b5b602002018181525050836020015181600160038110610dd657610dd561213a565b5b6020020181815250508281600260038110610df457610df361213a565b5b602002018181525050600060608360808460076107d05a03fa90508060008103610e1a57fe5b5080610e2557600080fd5b505092915050565b610e356114fe565b610e3d61153a565b836000015181600060048110610e5657610e5561213a565b5b602002018181525050836020015181600160048110610e7857610e7761213a565b5b602002018181525050826000015181600260048110610e9a57610e9961213a565b5b602002018181525050826020015181600360048110610ebc57610ebb61213a565b5b602002018181525050600060608360c08460066107d05a03fa90508060008103610ee257fe5b5080610eed57600080fd5b505092915050565b610efd6114fe565b60007f30644e72e131a029b85045b68181585d97816a916871ca8d3c208c16d87cfd47905060008360000151148015610f3a575060008360200151145b15610f5e576040518060400160405280600081526020016000815250915050610f95565b604051806040016040528084600001518152602001828560200151610f8391906121fb565b83610f8e919061222c565b8152509150505b919050565b600080600467ffffffffffffffff811115610fb857610fb76115f5565b5b604051908082528060200260200182016040528015610ff157816020015b610fde6114fe565b815260200190600190039081610fd65790505b5090506000600467ffffffffffffffff811115611011576110106115f5565b5b60405190808252806020026020018201604052801561104a57816020015b61103761155c565b81526020019060019003908161102f5790505b5090508a826000815181106110625761106161213a565b5b602002602001018190525088826001815181106110825761108161213a565b5b602002602001018190525086826002815181106110a2576110a161213a565b5b602002602001018190525084826003815181106110c2576110c161213a565b5b602002602001018190525089816000815181106110e2576110e161213a565b5b602002602001018190525087816001815181106111025761110161213a565b5b602002602001018190525085816002815181106111225761112161213a565b5b602002602001018190525083816003815181106111425761114161213a565b5b60200260200101819052506111578282611167565b9250505098975050505050505050565b6000815183511461117757600080fd5b600083519050600060068261118c9190612260565b905060008167ffffffffffffffff8111156111aa576111a96115f5565b5b6040519080825280602002602001820160405280156111d85781602001602082028036833780820191505090505b50905060005b83811015611457578681815181106111f9576111f861213a565b5b6020026020010151600001518260006006846112159190612260565b61121f9190612198565b815181106112305761122f61213a565b5b60200260200101818152505086818151811061124f5761124e61213a565b5b60200260200101516020015182600160068461126b9190612260565b6112759190612198565b815181106112865761128561213a565b5b6020026020010181815250508581815181106112a5576112a461213a565b5b6020026020010151600001516001600281106112c4576112c361213a565b5b60200201518260026006846112d99190612260565b6112e39190612198565b815181106112f4576112f361213a565b5b6020026020010181815250508581815181106113135761131261213a565b5b6020026020010151600001516000600281106113325761133161213a565b5b60200201518260036006846113479190612260565b6113519190612198565b815181106113625761136161213a565b5b6020026020010181815250508581815181106113815761138061213a565b5b6020026020010151602001516001600281106113a05761139f61213a565b5b60200201518260046006846113b59190612260565b6113bf9190612198565b815181106113d0576113cf61213a565b5b6020026020010181815250508581815181106113ef576113ee61213a565b5b60200260200101516020015160006002811061140e5761140d61213a565b5b60200201518260056006846114239190612260565b61142d9190612198565b8151811061143e5761143d61213a565b5b60200260200101818152505080806001019150506111de565b50611460611582565b6000602082602086026020860160086107d05a03fa9050806000810361148257fe5b508061148d57600080fd5b6000826000600181106114a3576114a261213a565b5b602002015114159550505050505092915050565b6040518060a001604052806114ca6114fe565b81526020016114d761155c565b81526020016114e461155c565b81526020016114f161155c565b8152602001606081525090565b604051806040016040528060008152602001600081525090565b6040518060600160405280600390602082028036833780820191505090505090565b6040518060800160405280600490602082028036833780820191505090505090565b604051806040016040528061156f6115a4565b815260200161157c6115a4565b81525090565b6040518060200160405280600190602082028036833780820191505090505090565b6040518060400160405280600290602082028036833780820191505090505090565b6000604051905090565b600080fd5b600080fd5b600080fd5b600080fd5b6000601f19601f8301169050919050565b7f4e487b7100000000000000000000000000000000000000000000000000000000600052604160045260246000fd5b61162d826115e4565b810181811067ffffffffffffffff8211171561164c5761164b6115f5565b5b80604052505050565b600061165f6115c6565b905061166b8282611624565b919050565b600067ffffffffffffffff82111561168b5761168a6115f5565b5b611694826115e4565b9050602081019050919050565b82818337600083830152505050565b60006116c36116be84611670565b611655565b9050828152602081018484840111156116df576116de6115df565b5b6116ea8482856116a1565b509392505050565b600082601f830112611707576117066115da565b5b81356117178482602086016116b0565b91505092915050565b600080fd5b6000819050919050565b61173881611725565b811461174357600080fd5b50565b6000813590506117558161172f565b92915050565b60006040828403121561177157611770611720565b5b61177b6040611655565b9050600061178b84828501611746565b600083015250602061179f84828501611746565b60208301525092915050565b600067ffffffffffffffff8211156117c6576117c56115f5565b5b602082029050919050565b600080fd5b60006117e96117e4846117ab565b611655565b90508060208402830185811115611803576118026117d1565b5b835b8181101561182c57806118188882611746565b845260208401935050602081019050611805565b5050509392505050565b600082601f83011261184b5761184a6115da565b5b60026118588482856117d6565b91505092915050565b60006080828403121561187757611876611720565b5b6118816040611655565b9050600061189184828501611836565b60008301525060406118a584828501611836565b60208301525092915050565b600061010082840312156118c8576118c7611720565b5b6118d26060611655565b905060006118e28482850161175b565b60008301525060406118f684828501611861565b60208301525060c061190a8482850161175b565b60408301525092915050565b600067ffffffffffffffff821115611931576119306115f5565b5b602082029050602081019050919050565b600061195561195084611916565b611655565b90508083825260208201905060208402830185811115611978576119776117d1565b5b835b818110156119a1578061198d8882611746565b84526020840193505060208101905061197a565b5050509392505050565b600082601f8301126119c0576119bf6115da565b5b81356119d0848260208601611942565b91505092915050565b60008060008061016085870312156119f4576119f36115d0565b5b600085013567ffffffffffffffff811115611a1257611a116115d5565b5b611a1e878288016116f2565b945050602085013567ffffffffffffffff811115611a3f57611a3e6115d5565b5b611a4b878288016116f2565b9350506040611a5c878288016118b1565b92505061014085013567ffffffffffffffff811115611a7e57611a7d6115d5565b5b611a8a878288016119ab565b91505092959194509250565b600073ffffffffffffffffffffffffffffffffffffffff82169050919050565b6000611ac182611a96565b9050919050565b611ad181611ab6565b8114611adc57600080fd5b50565b600081359050611aee81611ac8565b92915050565b600060208284031215611b0a57611b096115d0565b5b6000611b1884828501611adf565b91505092915050565b611b2a81611725565b82525050565b6000602082019050611b456000830184611b21565b92915050565b60008060408385031215611b6257611b616115d0565b5b600083013567ffffffffffffffff811115611b8057611b7f6115d5565b5b611b8c858286016116f2565b925050602083013567ffffffffffffffff811115611bad57611bac6115d5565b5b611bb9858286016116f2565b9150509250929050565b60008060408385031215611bda57611bd96115d0565b5b6000611be885828601611adf565b9250506020611bf985828601611746565b9150509250929050565b600081519050919050565b600082825260208201905092915050565b60005b83811015611c3d578082015181840152602081019050611c22565b60008484015250505050565b6000611c5482611c03565b611c5e8185611c0e565b9350611c6e818560208601611c1f565b611c77816115e4565b840191505092915050565b60006060820190508181036000830152611c9c8186611c49565b90508181036020830152611cb08185611c49565b9050611cbf6040830184611b21565b949350505050565b600067ffffffffffffffff821115611ce257611ce16115f5565b5b602082029050919050565b6000611d00611cfb84611cc7565b611655565b90508060208402830185811115611d1a57611d196117d1565b5b835b81811015611d435780611d2f8882611746565b845260208401935050602081019050611d1c565b5050509392505050565b600082601f830112611d6257611d616115da565b5b6001611d6f848285611ced565b91505092915050565b6000806101208385031215611d9057611d8f6115d0565b5b6000611d9e858286016118b1565b925050610100611db085828601611d4d565b9150509250929050565b60008115159050919050565b611dcf81611dba565b82525050565b6000602082019050611dea6000830184611dc6565b92915050565b7f496e76616c6964205a4b2070726f6f6600000000000000000000000000000000600082015250565b6000611e26601083611c0e565b9150611e3182611df0565b602082019050919050565b60006020820190508181036000830152611e5581611e19565b9050919050565b7f4e487b7100000000000000000000000000000000000000000000000000000000600052602260045260246000fd5b60006002820490506001821680611ea357607f821691505b602082108103611eb657611eb5611e5c565b5b50919050565b60008190508160005260206000209050919050565b60006020601f8301049050919050565b600082821b905092915050565b600060088302611f1e7fffffffffffffffffffffffffffffffffffffffffffffffffffffffffffffffff82611ee1565b611f288683611ee1565b95508019841693508086168417925050509392505050565b6000819050919050565b6000611f65611f60611f5b84611725565b611f40565b611725565b9050919050565b6000819050919050565b611f7f83611f4a565b611f93611f8b82611f6c565b848454611eee565b825550505050565b600090565b611fa8611f9b565b611fb3818484611f76565b505050565b5b81811015611fd757611fcc600082611fa0565b600181019050611fb9565b5050565b601f82111561201c57611fed81611ebc565b611ff684611ed1565b81016020851015612005578190505b61201961201185611ed1565b830182611fb8565b50505b505050565b600082821c905092915050565b600061203f60001984600802612021565b1980831691505092915050565b6000612058838361202e565b9150826002028217905092915050565b61207182611c03565b67ffffffffffffffff81111561208a576120896115f5565b5b6120948254611e8b565b61209f828285611fdb565b600060209050601f8311600181146120d257600084156120c0578287015190505b6120ca858261204c565b865550612132565b601f1984166120e086611ebc565b60005b82811015612108578489015182556001820191506020850194506020810190506120e3565b868310156121255784890151612121601f89168261202e565b8355505b6001600288020188555050505b505050505050565b7f4e487b7100000000000000000000000000000000000000000000000000000000600052603260045260246000fd5b7f4e487b7100000000000000000000000000000000000000000000000000000000600052601160045260246000fd5b60006121a382611725565b91506121ae83611725565b92508282019050808211156121c6576121c5612169565b5b92915050565b7f4e487b7100000000000000000000000000000000000000000000000000000000600052601260045260246000fd5b600061220682611725565b915061221183611725565b925082612221576122206121cc565b5b828206905092915050565b600061223782611725565b915061224283611725565b925082820390508181111561225a57612259612169565b5b92915050565b600061226b82611725565b915061227683611725565b925082820261228481611725565b9150828204841483151761229b5761229a612169565b5b509291505056fea2646970667358221220a9b28c057ad893e193936ae8ebe47104d187de4e702404a1497b4044a1211b2164736f6c634300081c0033",
  "linkReferences": {},
  "deployedLinkReferences": {}
}