{
  "_format": "hh-sol-artifact-1",
  "contractName": "EvidenceRegistry",
  "sourceName": "contracts/EvidenceRegistry.sol",
  "abi": [
    {
      "anonymous": false,
      "inputs": [
        {
          "indexed": true,
          "internalType": "address",
          "name": "submitter",
          "type": "address"
        },
        {
          "indexed": false,
          "internalType": "string",
          "name": "hash",
          "type": "string"
        },
        {
          "indexed": false,
          "internalType": "string",
          "name": "metadata",
          "type": "string"
        },
        {
          "indexed": false,
          "internalType": "uint256",
          "name": "timestamp",
          "type": "uint256"
        }
      ],
      "name": "EvidenceSubmitted",
      "type": "event"
    },
    {
      "inputs": [
        {
          "internalType": "address",
          "name": "user",
          "type": "address"
        },
        {
          "internalType": "uint256",
          "name": "index",
          "type": "uint256"
        }
      ],
      "name": "getEvidence",
      "outputs": [
        {
          "internalType": "string",
          "name": "",
          "type": "string"
        },
        {
          "internalType": "string",
          "name": "",
          "type": "string"
        },
        {
          "internalType": "uint256",
          "name": "",
          "type": "uint256"
        }
      ],
      "stateMutability": "view",
      "type": "function"
    },
    {
      "inputs": [
        {
          "internalType": "address",
          "name": "user",
          "type": "address"
        }
      ],
      "name": "getEvidenceCount",
      "outputs": [
        {
          "internalType": "uint256",
          "name": "",
          "type": "uint256"
        }
      ],
      "stateMutability": "view",
      "type": "function"
    },
    {
      "inputs": [
        {
          "internalType": "address",
          "name": "",
          "type": "address"
        },
        {
          "internalType": "uint256",
          "name": "",
          "type": "uint256"
        }
      ],
      "name": "logs",
      "outputs": [
        {
          "internalType": "string",
          "name": "hash",
          "type": "string"
        },
        {
          "internalType": "string",
          "name": "metadata",
          "type": "string"
        },
        {
          "internalType": "uint256",
          "name": "timestamp",
          "type": "uint256"
        }
      ],
      "stateMutability": "view",
      "type": "function"
    },
    {
      "inputs": [
        {
          "internalType": "string",
          "name": "hash",
          "type": "string"
        },
        {
          "internalType": "string",
          "name": "metadata",
          "type": "string"
        }
      ],
      "name": "submitEvidence",
      "outputs": [],
      "stateMutability": "nonpayable",
      "type": "function"
    },
    {
      "inputs": [
        {
          "internalType": "string",
          "name": "hash",
          "type": "string"
        },
        {
          "internalType": "string",
          "name": "metadata",
          "type": "string"
        },
        {
          "components": [
            {
              "components": [
                {
                  "internalType": "uint256",
                  "name": "X",
                  "type": "uint256"
                },
                {
                  "internalType": "uint256",
                  "name": "Y",
                  "type": "uint256"
                }
              ],
              "internalType": "struct Pairing.G1Point",
              "name": "a",
              "type": "tuple"
            },
            {
              "components": [
                {
                  "internalType": "uint256[2]",
                  "name": "X",
                  "type": "uint256[2]"
                },
                {
                  "internalType": "uint256[2]",
                  "name": "Y",
                  "type": "uint256[2]"
                }
              ],
              "internalType": "struct Pairing.G2Point",
              "name": "b",
              "type": "tuple"
            },
            {
              "components": [
                {
                  "internalType": "uint256",
                  "name": "X",
                  "type": "uint256"
                },
                {
                  "internalType": "uint256",
                  "name": "Y",
                  "type": "uint256"
                }
              ],
              "internalType": "struct Pairing.G1Point",
              "name": "c",
              "type": "tuple"
            }
          ],
          "internalType": "struct Verifier.Proof",
          "name": "proof",
          "type": "tuple"
        },
        {
          "internalType": "uint256[]",
          "name": "input",
          "type": "uint256[]"
        }
      ],
      "name": "submitEvidenceWithProof",
      "outputs": [],
      "stateMutability": "nonpayable",
      "type": "function"
    },
    {
      "inputs": [
        {
          "components": [
            {
              "components": [
                {
                  "internalType": "uint256",
                  "name": "X",
                  "type": "uint256"
                },
                {
                  "internalType": "uint256",
                  "name": "Y",
                  "type": "uint256"
                }
              ],
              "internalType": "struct Pairing.G1Point",
              "name": "a",
              "type": "tuple"
            },
            {
              "components": [
                {
                  "internalType": "uint256[2]",
                  "name": "X",
                  "type": "uint256[2]"
                },
                {
                  "internalType": "uint256[2]",
                  "name": "Y",
                  "type": "uint256[2]"
                }
              ],
              "internalType": "struct Pairing.G2Point",
              "name": "b",
              "type": "tuple"
            },
            {
              "components": [
                {
                  "internalType": "uint256",
                  "name": "X",
                  "type": "uint256"
                },
                {
                  "internalType": "uint256",
                  "name": "Y",
                  "type": "uint256"
                }
              ],
              "internalType": "struct Pairing.G1Point",
              "name": "c",
              "type": "tuple"
            }
          ],
          "internalType": "struct Verifier.Proof",
          "name": "proof",
          "type": "tuple"
        },
        {
          "internalType": "uint256[1]",
          "name": "input",
          "type": "uint256[1]"
        }
      ],
      "name": "verifyTx",
      "outputs": [
        {
          "internalType": "bool",
          "name": "r",
          "type": "bool"
        }
      ],
      "stateMutability": "view",
      "type": "function"
    }
  ],
  "bytecode": "0x6080604052348015600f57600080fd5b506122d78061001f6000396000f3fe608060405234801561001057600080fd5b50600436106100625760003560e01c806323ad7ccf146100675780638bb6d133146100835780638c0d89cd146100b3578063b254ee4a146100cf578063ee7bafbb14610101578063f48d772914610133575b600080fd5b610081600480360381019061007c91906119d8565b610163565b005b61009d60048036038101906100989190611af3565b6102c1565b6040516100aa9190611b2f565b60405180910390f35b6100cd60048036038101906100c89190611b4a565b61030c565b005b6100e960048036038101906100e49190611bc2565b61041c565b6040516100f893929190611c81565b60405180910390f35b61011b60048036038101906101169190611bc2565b6105d8565b60405161012a93929190611c81565b60405180910390f35b61014d60048036038101906101489190611d77565b61072f565b60405161015a9190611dd4565b60405180910390f35b600061016f82846107f6565b146101af576040517f08c379a00000000000000000000000000000000000000000000000000000000081526004016101a690611e3b565b60405180910390fd5b6000803373ffffffffffffffffffffffffffffffffffffffff1673ffffffffffffffffffffffffffffffffffffffff168152602001908152602001600020604051806060016040528086815260200185815260200142815250908060018154018082558091505060019003906000526020600020906003020160009091909190915060008201518160000190816102469190612067565b50602082015181600101908161025c9190612067565b506040820151816002015550503373ffffffffffffffffffffffffffffffffffffffff167feb567dc38c6df5e0a5567c3d99692d5615b41aefe2e6815ea245b133b0f9da948585426040516102b393929190611c81565b60405180910390a250505050565b60008060008373ffffffffffffffffffffffffffffffffffffffff1673ffffffffffffffffffffffffffffffffffffffff168152602001908152602001600020805490509050919050565b6000803373ffffffffffffffffffffffffffffffffffffffff1673ffffffffffffffffffffffffffffffffffffffff168152602001908152602001600020604051806060016040528084815260200183815260200142815250908060018154018082558091505060019003906000526020600020906003020160009091909190915060008201518160000190816103a39190612067565b5060208201518160010190816103b99190612067565b506040820151816002015550503373ffffffffffffffffffffffffffffffffffffffff167feb567dc38c6df5e0a5567c3d99692d5615b41aefe2e6815ea245b133b0f9da9483834260405161041093929190611c81565b60405180910390a25050565b6060806000806000808773ffffffffffffffffffffffffffffffffffffffff1673ffffffffffffffffffffffffffffffffffffffff168152602001908152602001600020858154811061047257610471612139565b5b906000526020600020906003020160405180606001604052908160008201805461049b90611e8a565b80601f01602080910402602001604051908101604052809291908181526020018280546104c790611e8a565b80156105145780601f106104e957610100808354040283529160200191610514565b820191906000526020600020905b8154815290600101906020018083116104f757829003601f168201915b5050505050815260200160018201805461052d90611e8a565b80601f016020809104026020016040519081016040528092919081815260200182805461055990611e8a565b80156105a65780601f1061057b576101008083540402835291602001916105a6565b820191906000526020600020905b81548152906001019060200180831161058957829003601f168201915b505050505081526020016002820154815250509050806000015181602001518260400151935093509350509250925092565b600060205281600052604060002081815481106105f457600080fd5b90600052602060002090600302016000915091505080600001805461061890611e8a565b80601f016020809104026020016040519081016040528092919081815260200182805461064490611e8a565b80156106915780601f1061066657610100808354040283529160200191610691565b820191906000526020600020905b81548152906001019060200180831161067457829003601f168201915b5050505050908060010180546106a690611e8a565b80601f01602080910402602001604051908101604052809291908181526020018280546106d290611e8a565b801561071f5780601f106106f45761010080835404028352916020019161071f565b820191906000526020600020905b81548152906001019060200180831161070257829003601f168201915b5050505050908060020154905083565b600080600167ffffffffffffffff81111561074d5761074c6115f4565b5b60405190808252806020026020018201604052801561077b5781602001602082028036833780820191505090505b50905060005b60018110156107ce5783816001811061079d5761079c612139565b5b60200201518282815181106107b5576107b4612139565b5b6020026020010181815250508080600101915050610781565b5060006107db82866107f6565b036107ea5760019150506107f0565b60009150505b92915050565b6000807f30644e72e131a029b85045b68181585d2833e84879b9709143e1f593f000000190506000610826610987565b90508060800151516001865161083c9190612197565b1461084657600080fd5b60006040518060400160405280600081526020016000815250905060005b86518110156108f9578387828151811061088157610880612139565b5b60200260200101511061089357600080fd5b6108ea826108e585608001516001856108ac9190612197565b815181106108bd576108bc612139565b5b60200260200101518a85815181106108d8576108d7612139565b5b6020026020010151610d8a565b610e2c565b91508080600101915050610864565b5061092381836080015160008151811061091657610915612139565b5b6020026020010151610e2c565b90506109698560000151866020015161093b84610ef4565b856040015161094d8a60400151610ef4565b876060015161095f8960000151610ef4565b8960200151610f99565b6109795760019350505050610981565b600093505050505b92915050565b61098f6114b6565b60405180604001604052807efa9e448b3c1f03bce1bb031595c7b570033ed64e3a2ec192f3d871d468b43e81526020017f22d974da6d58a19a657a73a94431fca33535cfb33a7b0fae80af92e8c4d65ac08152508160000181905250604051806040016040528060405180604001604052807f295e8ac510ff9e2f75e37d17708ade7b3ca3ad6548f40935db7b414faa40b18381526020017f13935e208f0cafbfa5ec5ae8828666f30d4696504f3e13dfb4a05e6686886c18815250815260200160405180604001604052807f12ce68214a931ffe7c4c9c11115668dba57293adfd173fb8d706fdb8a71d9b4b81526020017f1be7bf0e34fcc42749cf5b37961979fed4d66ad3325cdb2f165b423b89f8df4b8152508152508160200181905250604051806040016040528060405180604001604052807f12df997ad36df23ec9a847fb9b2bc312c24b700ff9eeb16be6d67d45749b96f881526020017f1f6f1a7450dcab836a4912598b354b63144c17d8ebc9ff3133d7d872a3667284815250815260200160405180604001604052807f0f571b099877fb3117b5354e0691fe3de031fdb4794659ee74ad8d02642dbca481526020017f1232edf9a80f6b166943cd2b05b350a4f15419a966f1eb96bbc333baf05264268152508152508160400181905250604051806040016040528060405180604001604052807f029556692fb8cfccc31f17b70e44919827310f285ce13082c50aaed0ee4db42681526020017f1e09e3519380be12129c0dc8a3db4e773676281203da05c06ea3fe020e412403815250815260200160405180604001604052807f02640a775f4aad5f7710fe9ec29993ea47649a54328771ec8f0e77f7bf266e0481526020017f1c10d7c0f73b12193724aa80ac190b0d90380d44c1f0f5837dedb5dbe00d38878152508152508160600181905250600267ffffffffffffffff811115610c5557610c546115f4565b5b604051908082528060200260200182016040528015610c8e57816020015b610c7b6114fd565b815260200190600190039081610c735790505b50816080018190525060405180604001604052807f269e876f3a529fe009975f05a03479f0b770d887f18f78dacf23a7eb8d271def81526020017f1d236c498a28c507ffa0c7eb1107e91c79f9ce8678164da369741af4e843cdb88152508160800151600081518110610d0457610d03612139565b5b602002602001018190525060405180604001604052807f1c9e08f2bcf5e26ddfee96c7a0ab3b6ec1852bf0ce47e20ed410cb29290e554281526020017f27f7f79e9943bbafccbe17c29a283a954f55ce2bf21faee93f4fb369f4246b018152508160800151600181518110610d7c57610d7b612139565b5b602002602001018190525090565b610d926114fd565b610d9a611517565b836000015181600060038110610db357610db2612139565b5b602002018181525050836020015181600160038110610dd557610dd4612139565b5b6020020181815250508281600260038110610df357610df2612139565b5b602002018181525050600060608360808460076107d05a03fa90508060008103610e1957fe5b5080610e2457600080fd5b505092915050565b610e346114fd565b610e3c611539565b836000015181600060048110610e5557610e54612139565b5b602002018181525050836020015181600160048110610e7757610e76612139565b5b602002018181525050826000015181600260048110610e9957610e98612139565b5b602002018181525050826020015181600360048110610ebb57610eba612139565b5b602002018181525050600060608360c08460066107d05a03fa90508060008103610ee157fe5b5080610eec57600080fd5b505092915050565b610efc6114fd565b60007f30644e72e131a029b85045b68181585d97816a916871ca8d3c208c16d87cfd47905060008360000151148015610f39575060008360200151145b15610f5d576040518060400160405280600081526020016000815250915050610f94565b604051806040016040528084600001518152602001828560200151610f8291906121fa565b83610f8d919061222b565b8152509150505b919050565b600080600467ffffffffffffffff811115610fb757610fb66115f4565b5b604051908082528060200260200182016040528015610ff057816020015b610fdd6114fd565b815260200190600190039081610fd55790505b5090506000600467ffffffffffffffff8111156110105761100f6115f4565b5b60405190808252806020026020018201604052801561104957816020015b61103661155b565b81526020019060019003908161102e5790505b5090508a8260008151811061106157611060612139565b5b6020026020010181905250888260018151811061108157611080612139565b5b602002602001018190525086826002815181106110a1576110a0612139565b5b602002602001018190525084826003815181106110c1576110c0612139565b5b602002602001018190525089816000815181106110e1576110e0612139565b5b6020026020010181905250878160018151811061110157611100612139565b5b6020026020010181905250858160028151811061112157611120612139565b5b6020026020010181905250838160038151811061114157611140612139565b5b60200260200101819052506111568282611166565b9250505098975050505050505050565b6000815183511461117657600080fd5b600083519050600060068261118b919061225f565b905060008167ffffffffffffffff8111156111a9576111a86115f4565b5b6040519080825280602002602001820160405280156111d75781602001602082028036833780820191505090505b50905060005b83811015611456578681815181106111f8576111f7612139565b5b602002602001015160000151826000600684611214919061225f565b61121e9190612197565b8151811061122f5761122e612139565b5b60200260200101818152505086818151811061124e5761124d612139565b5b60200260200101516020015182600160068461126a919061225f565b6112749190612197565b8151811061128557611284612139565b5b6020026020010181815250508581815181106112a4576112a3612139565b5b6020026020010151600001516001600281106112c3576112c2612139565b5b60200201518260026006846112d8919061225f565b6112e29190612197565b815181106112f3576112f2612139565b5b60200260200101818152505085818151811061131257611311612139565b5b60200260200101516000015160006002811061133157611330612139565b5b6020020151826003600684611346919061225f565b6113509190612197565b8151811061136157611360612139565b5b6020026020010181815250508581815181106113805761137f612139565b5b60200260200101516020015160016002811061139f5761139e612139565b5b60200201518260046006846113b4919061225f565b6113be9190612197565b815181106113cf576113ce612139565b5b6020026020010181815250508581815181106113ee576113ed612139565b5b60200260200101516020015160006002811061140d5761140c612139565b5b6020020151826005600684611422919061225f565b61142c9190612197565b8151811061143d5761143c612139565b5b60200260200101818152505080806001019150506111dd565b5061145f611581565b6000602082602086026020860160086107d05a03fa9050806000810361148157fe5b508061148c57600080fd5b6000826000600181106114a2576114a1612139565b5b602002015114159550505050505092915050565b6040518060a001604052806114c96114fd565b81526020016114d661155b565b81526020016114e361155b565b81526020016114f061155b565b8152602001606081525090565b604051806040016040528060008152602001600081525090565b6040518060600160405280600390602082028036833780820191505090505090565b6040518060800160405280600490602082028036833780820191505090505090565b604051806040016040528061156e6115a3565b815260200161157b6115a3565b81525090565b6040518060200160405280600190602082028036833780820191505090505090565b6040518060400160405280600290602082028036833780820191505090505090565b6000604051905090565b600080fd5b600080fd5b600080fd5b600080fd5b6000601f19601f8301169050919050565b7f4e487b7100000000000000000000000000000000000000000000000000000000600052604160045260246000fd5b61162c826115e3565b810181811067ffffffffffffffff8211171561164b5761164a6115f4565b5b80604052505050565b600061165e6115c5565b905061166a8282611623565b919050565b600067ffffffffffffffff82111561168a576116896115f4565b5b611693826115e3565b9050602081019050919050565b82818337600083830152505050565b60006116c26116bd8461166f565b611654565b9050828152602081018484840111156116de576116dd6115de565b5b6116e98482856116a0565b509392505050565b600082601f830112611706576117056115d9565b5b81356117168482602086016116af565b91505092915050565b600080fd5b6000819050919050565b61173781611724565b811461174257600080fd5b50565b6000813590506117548161172e565b92915050565b6000604082840312156117705761176f61171f565b5b61177a6040611654565b9050600061178a84828501611745565b600083015250602061179e84828501611745565b60208301525092915050565b600067ffffffffffffffff8211156117c5576117c46115f4565b5b602082029050919050565b600080fd5b60006117e86117e3846117aa565b611654565b90508060208402830185811115611802576118016117d0565b5b835b8181101561182b57806118178882611745565b845260208401935050602081019050611804565b5050509392505050565b600082601f83011261184a576118496115d9565b5b60026118578482856117d5565b91505092915050565b6000608082840312156118765761187561171f565b5b6118806040611654565b9050600061189084828501611835565b60008301525060406118a484828501611835565b60208301525092915050565b600061010082840312156118c7576118c661171f565b5b6118d16060611654565b905060006118e18482850161175a565b60008301525060406118f584828501611860565b60208301525060c06119098482850161175a565b60408301525092915050565b600067ffffffffffffffff8211156119305761192f6115f4565b5b602082029050602081019050919050565b600061195461194f84611915565b611654565b90508083825260208201905060208402830185811115611977576119766117d0565b5b835b818110156119a0578061198c8882611745565b845260208401935050602081019050611979565b5050509392505050565b600082601f8301126119bf576119be6115d9565b5b81356119cf848260208601611941565b91505092915050565b60008060008061016085870312156119f3576119f26115cf565b5b600085013567ffffffffffffffff811115611a1157611a106115d4565b5b611a1d878288016116f1565b945050602085013567ffffffffffffffff811115611a3e57611a3d6115d4565b5b611a4a878288016116f1565b9350506040611a5b878288016118b0565b92505061014085013567ffffffffffffffff811115611a7d57611a7c6115d4565b5b611a89878288016119aa565b91505092959194509250565b600073ffffffffffffffffffffffffffffffffffffffff82169050919050565b6000611ac082611a95565b9050919050565b611ad081611ab5565b8114611adb57600080fd5b50565b600081359050611aed81611ac7565b92915050565b600060208284031215611b0957611b086115cf565b5b6000611b1784828501611ade565b91505092915050565b611b2981611724565b82525050565b6000602082019050611b446000830184611b20565b92915050565b60008060408385031215611b6157611b606115cf565b5b600083013567ffffffffffffffff811115611b7f57611b7e6115d4565b5b611b8b858286016116f1565b925050602083013567ffffffffffffffff811115611bac57611bab6115d4565b5b611bb8858286016116f1565b9150509250929050565b60008060408385031215611bd957611bd86115cf565b5b6000611be785828601611ade565b9250506020611bf885828601611745565b9150509250929050565b600081519050919050565b600082825260208201905092915050565b60005b83811015611c3c578082015181840152602081019050611c21565b60008484015250505050565b6000611c5382611c02565b611c5d8185611c0d565b9350611c6d818560208601611c1e565b611c76816115e3565b840191505092915050565b60006060820190508181036000830152611c9b8186611c48565b90508181036020830152611caf8185611c48565b9050611cbe6040830184611b20565b949350505050565b600067ffffffffffffffff821115611ce157611ce06115f4565b5b602082029050919050565b6000611cff611cfa84611cc6565b611654565b90508060208402830185811115611d1957611d186117d0565b5b835b81811015611d425780611d2e8882611745565b845260208401935050602081019050611d1b565b5050509392505050565b600082601f830112611d6157611d606115d9565b5b6001611d6e848285611cec565b91505092915050565b6000806101208385031215611d8f57611d8e6115cf565b5b6000611d9d858286016118b0565b925050610100611daf85828601611d4c565b9150509250929050565b60008115159050919050565b611dce81611db9565b82525050565b6000602082019050611de96000830184611dc5565b92915050565b7f496e76616c6964205a4b2070726f6f6600000000000000000000000000000000600082015250565b6000611e25601083611c0d565b9150611e3082611def565b602082019050919050565b60006020820190508181036000830152611e5481611e18565b9050919050565b7f4e487b7100000000000000000000000000000000000000000000000000000000600052602260045260246000fd5b60006002820490506001821680611ea257607f821691505b602082108103611eb557611eb4611e5b565b5b50919050565b60008190508160005260206000209050919050565b60006020601f8301049050919050565b600082821b905092915050565b600060088302611f1d7fffffffffffffffffffffffffffffffffffffffffffffffffffffffffffffffff82611ee0565b611f278683611ee0565b95508019841693508086168417925050509392505050565b6000819050919050565b6000611f64611f5f611f5a84611724565b611f3f565b611724565b9050919050565b6000819050919050565b611f7e83611f49565b611f92611f8a82611f6b565b848454611eed565b825550505050565b600090565b611fa7611f9a565b611fb2818484611f75565b505050565b5b81811015611fd657611fcb600082611f9f565b600181019050611fb8565b5050565b601f82111561201b57611fec81611ebb565b611ff584611ed0565b81016020851015612004578190505b61201861201085611ed0565b830182611fb7565b50505b505050565b600082821c905092915050565b600061203e60001984600802612020565b1980831691505092915050565b6000612057838361202d565b9150826002028217905092915050565b61207082611c02565b67ffffffffffffffff811115612089576120886115f4565b5b6120938254611e8a565b61209e828285611fda565b600060209050601f8311600181146120d157600084156120bf578287015190505b6120c9858261204b565b865550612131565b601f1984166120df86611ebb565b60005b82811015612107578489015182556001820191506020850194506020810190506120e2565b868310156121245784890151612120601f89168261202d565b8355505b6001600288020188555050505b505050505050565b7f4e487b7100000000000000000000000000000000000000000000000000000000600052603260045260246000fd5b7f4e487b7100000000000000000000000000000000000000000000000000000000600052601160045260246000fd5b60006121a282611724565b91506121ad83611724565b92508282019050808211156121c5576121c4612168565b5b92915050565b7f4e487b7100000000000000000000000000000000000000000000000000000000600052601260045260246000fd5b600061220582611724565b915061221083611724565b9250826122205761221f6121cb565b5b828206905092915050565b600061223682611724565b915061224183611724565b925082820390508181111561225957612258612168565b5b92915050565b600061226a82611724565b915061227583611724565b925082820261228381611724565b9150828204841483151761229a57612299612168565b5b509291505056fea264697066735822122025335c1127abe996f7bb91fdb69ab6d09f10d91b3236ce16be4ffbd05db1672a64736f6c634300081c0033",
  "linkReferences": {},
  "deployedLinkReferences": {}
}