{
  "_format": "hh-sol-artifact-1",
  "contractName": "EvidenceRegistry",
  "sourceName": "contracts/EvidenceRegistry.sol",
  "abi": [
    {
      "anonymous": false,
      "inputs": [
        {
          "indexed": true,
          "internalType": "address",
          "name": "submitter",
          "type": "address"
        },
        {
          "indexed": true,
          "internalType": "bytes32",
          "name": "fileHash",
          "type": "bytes32"
        },
        {
          "indexed": true,
          "internalType": "bytes32",
          "name": "metaHash",
          "type": "bytes32"
        },
        {
          "indexed": false,
          "internalType": "string",
          "name": "fileUrl",
          "type": "string"
        },
        {
          "indexed": false,
          "internalType": "uint256",
          "name": "timestamp",
          "type": "uint256"
        }
      ],
      "name": "EvidenceSubmitted",
      "type": "event"
    },
    {
      "inputs": [
        {
          "internalType": "address",
          "name": "user",
          "type": "address"
        },
        {
          "internalType": "uint256",
          "name": "index",
          "type": "uint256"
        }
      ],
      "name": "getEvidence",
      "outputs": [
        {
          "internalType": "bytes32",
          "name": "",
          "type": "bytes32"
        },
        {
          "internalType": "bytes32",
          "name": "",
          "type": "bytes32"
        },
        {
          "internalType": "string",
          "name": "",
          "type": "string"
        },
        {
          "internalType": "uint256",
          "name": "",
          "type": "uint256"
        }
      ],
      "stateMutability": "view",
      "type": "function"
    },
    {
      "inputs": [
        {
          "internalType": "address",
          "name": "user",
          "type": "address"
        }
      ],
      "name": "getEvidenceCount",
      "outputs": [
        {
          "internalType": "uint256",
          "name": "",
          "type": "uint256"
        }
      ],
      "stateMutability": "view",
      "type": "function"
    },
    {
      "inputs": [
        {
          "internalType": "address",
          "name": "",
          "type": "address"
        },
        {
          "internalType": "uint256",
          "name": "",
          "type": "uint256"
        }
      ],
      "name": "logs",
      "outputs": [
        {
          "internalType": "bytes32",
          "name": "fileHash",
          "type": "bytes32"
        },
        {
          "internalType": "bytes32",
          "name": "metaHash",
          "type": "bytes32"
        },
        {
          "internalType": "uint256",
          "name": "timestamp",
          "type": "uint256"
        },
        {
          "internalType": "string",
          "name": "fileUrl",
          "type": "string"
        }
      ],
      "stateMutability": "view",
      "type": "function"
    },
    {
      "inputs": [
        {
          "internalType": "bytes32",
          "name": "fileHash",
          "type": "bytes32"
        },
        {
          "internalType": "bytes32",
          "name": "metaHash",
          "type": "bytes32"
        },
        {
          "internalType": "string",
          "name": "fileUrl",
          "type": "string"
        }
      ],
      "name": "submitEvidence",
      "outputs": [],
      "stateMutability": "nonpayable",
      "type": "function"
    },
    {
      "inputs": [
        {
          "internalType": "bytes32",
          "name": "fileHash",
          "type": "bytes32"
        },
        {
          "internalType": "bytes32",
          "name": "metaHash",
          "type": "bytes32"
        },
        {
          "internalType": "string",
          "name": "fileUrl",
          "type": "string"
        },
        {
          "components": [
            {
              "components": [
                {
                  "internalType": "uint256",
                  "name": "X",
                  "type": "uint256"
                },
                {
                  "internalType": "uint256",
                  "name": "Y",
                  "type": "uint256"
                }
              ],
              "internalType": "struct Pairing.G1Point",
              "name": "a",
              "type": "tuple"
            },
            {
              "components": [
                {
                  "internalType": "uint256[2]",
                  "name": "X",
                  "type": "uint256[2]"
                },
                {
                  "internalType": "uint256[2]",
                  "name": "Y",
                  "type": "uint256[2]"
                }
              ],
              "internalType": "struct Pairing.G2Point",
              "name": "b",
              "type": "tuple"
            },
            {
              "components": [
                {
                  "internalType": "uint256",
                  "name": "X",
                  "type": "uint256"
                },
                {
                  "internalType": "uint256",
                  "name": "Y",
                  "type": "uint256"
                }
              ],
              "internalType": "struct Pairing.G1Point",
              "name": "c",
              "type": "tuple"
            }
          ],
          "internalType": "struct Verifier.Proof",
          "name": "proof",
          "type": "tuple"
        },
        {
          "internalType": "uint256[]",
          "name": "input",
          "type": "uint256[]"
        }
      ],
      "name": "submitEvidenceWithProof",
      "outputs": [],
      "stateMutability": "nonpayable",
      "type": "function"
    },
    {
      "inputs": [
        {
          "components": [
            {
              "components": [
                {
                  "internalType": "uint256",
                  "name": "X",
                  "type": "uint256"
                },
                {
                  "internalType": "uint256",
                  "name": "Y",
                  "type": "uint256"
                }
              ],
              "internalType": "struct Pairing.G1Point",
              "name": "a",
              "type": "tuple"
            },
            {
              "components": [
                {
                  "internalType": "uint256[2]",
                  "name": "X",
                  "type": "uint256[2]"
                },
                {
                  "internalType": "uint256[2]",
                  "name": "Y",
                  "type": "uint256[2]"
                }
              ],
              "internalType": "struct Pairing.G2Point",
              "name": "b",
              "type": "tuple"
            },
            {
              "components": [
                {
                  "internalType": "uint256",
                  "name": "X",
                  "type": "uint256"
                },
                {
                  "internalType": "uint256",
                  "name": "Y",
                  "type": "uint256"
                }
              ],
              "internalType": "struct Pairing.G1Point",
              "name": "c",
              "type": "tuple"
            }
          ],
          "internalType": "struct Verifier.Proof",
          "name": "proof",
          "type": "tuple"
        },
        {
          "internalType": "uint256[1]",
          "name": "input",
          "type": "uint256[1]"
        }
      ],
      "name": "verifyTx",
      "outputs": [
        {
          "internalType": "bool",
          "name": "r",
          "type": "bool"
        }
      ],
      "stateMutability": "view",
      "type": "function"
    }
  ],
  "bytecode": "0x6080604052348015600f57600080fd5b506122a68061001f6000396000f3fe608060405234801561001057600080fd5b50600436106100625760003560e01c806355f3daaf146100675780636af02c1c146100835780638bb6d1331461009f578063b254ee4a146100cf578063ee7bafbb14610102578063f48d772914610135575b600080fd5b610081600480360381019061007c919061166d565b610165565b005b61009d60048036038101906100989190611995565b61027a565b005b6100b960048036038101906100b49190611aa8565b6103dd565b6040516100c69190611ae4565b60405180910390f35b6100e960048036038101906100e49190611aff565b610428565b6040516100f99493929190611bcd565b60405180910390f35b61011c60048036038101906101179190611aff565b610571565b60405161012c9493929190611c19565b60405180910390f35b61014f600480360381019061014a9190611d16565b610646565b60405161015c9190611d73565b60405180910390f35b6000803373ffffffffffffffffffffffffffffffffffffffff1673ffffffffffffffffffffffffffffffffffffffff168152602001908152602001600020604051806080016040528085815260200184815260200142815260200183815250908060018154018082558091505060019003906000526020600020906004020160009091909190915060008201518160000155602082015181600101556040820151816002015560608201518160030190816102209190611f9a565b50505081833373ffffffffffffffffffffffffffffffffffffffff167f8fbce10710f0f294ec4ea3e1a9d20c35127418d2c09c3a63f0fc4d14c7b5ffe0844260405161026d92919061206c565b60405180910390a4505050565b6000610286828461070d565b146102c6576040517f08c379a00000000000000000000000000000000000000000000000000000000081526004016102bd906120e8565b60405180910390fd5b6000803373ffffffffffffffffffffffffffffffffffffffff1673ffffffffffffffffffffffffffffffffffffffff168152602001908152602001600020604051806080016040528087815260200186815260200142815260200185815250908060018154018082558091505060019003906000526020600020906004020160009091909190915060008201518160000155602082015181600101556040820151816002015560608201518160030190816103819190611f9a565b50505083853373ffffffffffffffffffffffffffffffffffffffff167f8fbce10710f0f294ec4ea3e1a9d20c35127418d2c09c3a63f0fc4d14c7b5ffe086426040516103ce92919061206c565b60405180910390a45050505050565b60008060008373ffffffffffffffffffffffffffffffffffffffff1673ffffffffffffffffffffffffffffffffffffffff168152602001908152602001600020805490509050919050565b60008060606000806000808873ffffffffffffffffffffffffffffffffffffffff1673ffffffffffffffffffffffffffffffffffffffff16815260200190815260200160002086815481106104805761047f612108565b5b90600052602060002090600402016040518060800160405290816000820154815260200160018201548152602001600282015481526020016003820180546104c790611dbd565b80601f01602080910402602001604051908101604052809291908181526020018280546104f390611dbd565b80156105405780601f1061051557610100808354040283529160200191610540565b820191906000526020600020905b81548152906001019060200180831161052357829003601f168201915b5050505050815250509050806000015181602001518260600151836040015194509450945094505092959194509250565b6000602052816000526040600020818154811061058d57600080fd5b9060005260206000209060040201600091509150508060000154908060010154908060020154908060030180546105c390611dbd565b80601f01602080910402602001604051908101604052809291908181526020018280546105ef90611dbd565b801561063c5780601f106106115761010080835404028352916020019161063c565b820191906000526020600020905b81548152906001019060200180831161061f57829003601f168201915b5050505050905084565b600080600167ffffffffffffffff81111561066457610663611542565b5b6040519080825280602002602001820160405280156106925781602001602082028036833780820191505090505b50905060005b60018110156106e5578381600181106106b4576106b3612108565b5b60200201518282815181106106cc576106cb612108565b5b6020026020010181815250508080600101915050610698565b5060006106f2828661070d565b03610701576001915050610707565b60009150505b92915050565b6000807f30644e72e131a029b85045b68181585d2833e84879b9709143e1f593f00000019050600061073d61089e565b9050806080015151600186516107539190612166565b1461075d57600080fd5b60006040518060400160405280600081526020016000815250905060005b8651811015610810578387828151811061079857610797612108565b5b6020026020010151106107aa57600080fd5b610801826107fc85608001516001856107c39190612166565b815181106107d4576107d3612108565b5b60200260200101518a85815181106107ef576107ee612108565b5b6020026020010151610ca2565b610d44565b9150808060010191505061077b565b5061083a81836080015160008151811061082d5761082c612108565b5b6020026020010151610d44565b90506108808560000151866020015161085284610e0c565b85604001516108648a60400151610e0c565b87606001516108768960000151610e0c565b8960200151610eb1565b6108905760019350505050610898565b600093505050505b92915050565b6108a66113ce565b60405180604001604052807f1472b0dd369f716e112c07751d0c27233043535734a5f825d9dd70626ed8a09381526020017f17c297c0f4e5b15a54307d795183cacf0d79259c6a238a330faf96c546c73d068152508160000181905250604051806040016040528060405180604001604052807f0e6e0769c74b8a8c9c2e312b6df84699970e581826d2d2e69d888e70e730fe9881526020017f2cb7b94216cb6f7434c6f9ea9b3ed618a9acd8e5af40809aa2369293eb1052ad815250815260200160405180604001604052807f12ef5bdac92f5611e89d65f082f447269bca3ca768e173fd1a19c74db032855281526020017f16f5276a4c1aa8a7a2c077fca6efdfe95dadd86abb182d947dd6d32fa311b1f18152508152508160200181905250604051806040016040528060405180604001604052807f1163f85fb7795e9ab3a2c12e2c55cc1ffe5a316a2f0fbb71d339bd47efc7a40f81526020017f0837db4cdcf2010655e8513969177c251d9b4cc00ee453a066bd9b909eafa713815250815260200160405180604001604052807f111e3f1185b538247d37d08c4410614a7f0f81094312a83d3073b6773de8281681526020017f0a54f1ed75793b05419e1ee9b2a572b173415dd1b3800b046a6e0a9e4aad71448152508152508160400181905250604051806040016040528060405180604001604052807f2f80edc2a8a62d8a82958200c3c769ca290f92425f6b05d4539e3415fa93137081526020017f27213c685a6b2a5600c7ccfb96ffc1beba263dd9b81f54899d9d6de991ea8eed815250815260200160405180604001604052807f0ee011d115eece7d8cb0c8d7f08d4d667d37368d82d7362334b414e39d861b4d81526020017f1fc601ecc0f214540bfdc1ee26f4ea7d9721eb4a18c75210f814b3aedf20952e8152508152508160600181905250600267ffffffffffffffff811115610b6d57610b6c611542565b5b604051908082528060200260200182016040528015610ba657816020015b610b93611415565b815260200190600190039081610b8b5790505b50816080018190525060405180604001604052807f0b1307de8ddbb97b76988545de387e2991bb027ca557a1994e4956af9e56476b81526020017f2fadfd88cf2d866ce6c7fb975b11125afad3fee9c061dd467d13597b43f023868152508160800151600081518110610c1c57610c1b612108565b5b602002602001018190525060405180604001604052807f1b30f531b72a0af9189530493b0d09af7f55198fa6600b1c8bbcef3c1020e56181526020017f17bc3a2ecf4934e7b225b745c6684a4759176651df0e48298e9a3e9b00a79fcb8152508160800151600181518110610c9457610c93612108565b5b602002602001018190525090565b610caa611415565b610cb261142f565b836000015181600060038110610ccb57610cca612108565b5b602002018181525050836020015181600160038110610ced57610cec612108565b5b6020020181815250508281600260038110610d0b57610d0a612108565b5b602002018181525050600060608360808460076107d05a03fa90508060008103610d3157fe5b5080610d3c57600080fd5b505092915050565b610d4c611415565b610d54611451565b836000015181600060048110610d6d57610d6c612108565b5b602002018181525050836020015181600160048110610d8f57610d8e612108565b5b602002018181525050826000015181600260048110610db157610db0612108565b5b602002018181525050826020015181600360048110610dd357610dd2612108565b5b602002018181525050600060608360c08460066107d05a03fa90508060008103610df957fe5b5080610e0457600080fd5b505092915050565b610e14611415565b60007f30644e72e131a029b85045b68181585d97816a916871ca8d3c208c16d87cfd47905060008360000151148015610e51575060008360200151145b15610e75576040518060400160405280600081526020016000815250915050610eac565b604051806040016040528084600001518152602001828560200151610e9a91906121c9565b83610ea591906121fa565b8152509150505b919050565b600080600467ffffffffffffffff811115610ecf57610ece611542565b5b604051908082528060200260200182016040528015610f0857816020015b610ef5611415565b815260200190600190039081610eed5790505b5090506000600467ffffffffffffffff811115610f2857610f27611542565b5b604051908082528060200260200182016040528015610f6157816020015b610f4e611473565b815260200190600190039081610f465790505b5090508a82600081518110610f7957610f78612108565b5b60200260200101819052508882600181518110610f9957610f98612108565b5b60200260200101819052508682600281518110610fb957610fb8612108565b5b60200260200101819052508482600381518110610fd957610fd8612108565b5b60200260200101819052508981600081518110610ff957610ff8612108565b5b6020026020010181905250878160018151811061101957611018612108565b5b6020026020010181905250858160028151811061103957611038612108565b5b6020026020010181905250838160038151811061105957611058612108565b5b602002602001018190525061106e828261107e565b9250505098975050505050505050565b6000815183511461108e57600080fd5b60008351905060006006826110a3919061222e565b905060008167ffffffffffffffff8111156110c1576110c0611542565b5b6040519080825280602002602001820160405280156110ef5781602001602082028036833780820191505090505b50905060005b8381101561136e578681815181106111105761110f612108565b5b60200260200101516000015182600060068461112c919061222e565b6111369190612166565b8151811061114757611146612108565b5b60200260200101818152505086818151811061116657611165612108565b5b602002602001015160200151826001600684611182919061222e565b61118c9190612166565b8151811061119d5761119c612108565b5b6020026020010181815250508581815181106111bc576111bb612108565b5b6020026020010151600001516001600281106111db576111da612108565b5b60200201518260026006846111f0919061222e565b6111fa9190612166565b8151811061120b5761120a612108565b5b60200260200101818152505085818151811061122a57611229612108565b5b60200260200101516000015160006002811061124957611248612108565b5b602002015182600360068461125e919061222e565b6112689190612166565b8151811061127957611278612108565b5b60200260200101818152505085818151811061129857611297612108565b5b6020026020010151602001516001600281106112b7576112b6612108565b5b60200201518260046006846112cc919061222e565b6112d69190612166565b815181106112e7576112e6612108565b5b60200260200101818152505085818151811061130657611305612108565b5b60200260200101516020015160006002811061132557611324612108565b5b602002015182600560068461133a919061222e565b6113449190612166565b8151811061135557611354612108565b5b60200260200101818152505080806001019150506110f5565b50611377611499565b6000602082602086026020860160086107d05a03fa9050806000810361139957fe5b50806113a457600080fd5b6000826000600181106113ba576113b9612108565b5b602002015114159550505050505092915050565b6040518060a001604052806113e1611415565b81526020016113ee611473565b81526020016113fb611473565b8152602001611408611473565b8152602001606081525090565b604051806040016040528060008152602001600081525090565b6040518060600160405280600390602082028036833780820191505090505090565b6040518060800160405280600490602082028036833780820191505090505090565b60405180604001604052806114866114bb565b81526020016114936114bb565b81525090565b6040518060200160405280600190602082028036833780820191505090505090565b6040518060400160405280600290602082028036833780820191505090505090565b6000604051905090565b600080fd5b600080fd5b6000819050919050565b611504816114f1565b811461150f57600080fd5b50565b600081359050611521816114fb565b92915050565b600080fd5b600080fd5b6000601f19601f8301169050919050565b7f4e487b7100000000000000000000000000000000000000000000000000000000600052604160045260246000fd5b61157a82611531565b810181811067ffffffffffffffff8211171561159957611598611542565b5b80604052505050565b60006115ac6114dd565b90506115b88282611571565b919050565b600067ffffffffffffffff8211156115d8576115d7611542565b5b6115e182611531565b9050602081019050919050565b82818337600083830152505050565b600061161061160b846115bd565b6115a2565b90508281526020810184848401111561162c5761162b61152c565b5b6116378482856115ee565b509392505050565b600082601f83011261165457611653611527565b5b81356116648482602086016115fd565b91505092915050565b600080600060608486031215611686576116856114e7565b5b600061169486828701611512565b93505060206116a586828701611512565b925050604084013567ffffffffffffffff8111156116c6576116c56114ec565b5b6116d28682870161163f565b9150509250925092565b600080fd5b6000819050919050565b6116f4816116e1565b81146116ff57600080fd5b50565b600081359050611711816116eb565b92915050565b60006040828403121561172d5761172c6116dc565b5b61173760406115a2565b9050600061174784828501611702565b600083015250602061175b84828501611702565b60208301525092915050565b600067ffffffffffffffff82111561178257611781611542565b5b602082029050919050565b600080fd5b60006117a56117a084611767565b6115a2565b905080602084028301858111156117bf576117be61178d565b5b835b818110156117e857806117d48882611702565b8452602084019350506020810190506117c1565b5050509392505050565b600082601f83011261180757611806611527565b5b6002611814848285611792565b91505092915050565b600060808284031215611833576118326116dc565b5b61183d60406115a2565b9050600061184d848285016117f2565b6000830152506040611861848285016117f2565b60208301525092915050565b60006101008284031215611884576118836116dc565b5b61188e60606115a2565b9050600061189e84828501611717565b60008301525060406118b28482850161181d565b60208301525060c06118c684828501611717565b60408301525092915050565b600067ffffffffffffffff8211156118ed576118ec611542565b5b602082029050602081019050919050565b600061191161190c846118d2565b6115a2565b905080838252602082019050602084028301858111156119345761193361178d565b5b835b8181101561195d57806119498882611702565b845260208401935050602081019050611936565b5050509392505050565b600082601f83011261197c5761197b611527565b5b813561198c8482602086016118fe565b91505092915050565b600080600080600061018086880312156119b2576119b16114e7565b5b60006119c088828901611512565b95505060206119d188828901611512565b945050604086013567ffffffffffffffff8111156119f2576119f16114ec565b5b6119fe8882890161163f565b9350506060611a0f8882890161186d565b92505061016086013567ffffffffffffffff811115611a3157611a306114ec565b5b611a3d88828901611967565b9150509295509295909350565b600073ffffffffffffffffffffffffffffffffffffffff82169050919050565b6000611a7582611a4a565b9050919050565b611a8581611a6a565b8114611a9057600080fd5b50565b600081359050611aa281611a7c565b92915050565b600060208284031215611abe57611abd6114e7565b5b6000611acc84828501611a93565b91505092915050565b611ade816116e1565b82525050565b6000602082019050611af96000830184611ad5565b92915050565b60008060408385031215611b1657611b156114e7565b5b6000611b2485828601611a93565b9250506020611b3585828601611702565b9150509250929050565b611b48816114f1565b82525050565b600081519050919050565b600082825260208201905092915050565b60005b83811015611b88578082015181840152602081019050611b6d565b60008484015250505050565b6000611b9f82611b4e565b611ba98185611b59565b9350611bb9818560208601611b6a565b611bc281611531565b840191505092915050565b6000608082019050611be26000830187611b3f565b611bef6020830186611b3f565b8181036040830152611c018185611b94565b9050611c106060830184611ad5565b95945050505050565b6000608082019050611c2e6000830187611b3f565b611c3b6020830186611b3f565b611c486040830185611ad5565b8181036060830152611c5a8184611b94565b905095945050505050565b600067ffffffffffffffff821115611c8057611c7f611542565b5b602082029050919050565b6000611c9e611c9984611c65565b6115a2565b90508060208402830185811115611cb857611cb761178d565b5b835b81811015611ce15780611ccd8882611702565b845260208401935050602081019050611cba565b5050509392505050565b600082601f830112611d0057611cff611527565b5b6001611d0d848285611c8b565b91505092915050565b6000806101208385031215611d2e57611d2d6114e7565b5b6000611d3c8582860161186d565b925050610100611d4e85828601611ceb565b9150509250929050565b60008115159050919050565b611d6d81611d58565b82525050565b6000602082019050611d886000830184611d64565b92915050565b7f4e487b7100000000000000000000000000000000000000000000000000000000600052602260045260246000fd5b60006002820490506001821680611dd557607f821691505b602082108103611de857611de7611d8e565b5b50919050565b60008190508160005260206000209050919050565b60006020601f8301049050919050565b600082821b905092915050565b600060088302611e507fffffffffffffffffffffffffffffffffffffffffffffffffffffffffffffffff82611e13565b611e5a8683611e13565b95508019841693508086168417925050509392505050565b6000819050919050565b6000611e97611e92611e8d846116e1565b611e72565b6116e1565b9050919050565b6000819050919050565b611eb183611e7c565b611ec5611ebd82611e9e565b848454611e20565b825550505050565b600090565b611eda611ecd565b611ee5818484611ea8565b505050565b5b81811015611f0957611efe600082611ed2565b600181019050611eeb565b5050565b601f821115611f4e57611f1f81611dee565b611f2884611e03565b81016020851015611f37578190505b611f4b611f4385611e03565b830182611eea565b50505b505050565b600082821c905092915050565b6000611f7160001984600802611f53565b1980831691505092915050565b6000611f8a8383611f60565b9150826002028217905092915050565b611fa382611b4e565b67ffffffffffffffff811115611fbc57611fbb611542565b5b611fc68254611dbd565b611fd1828285611f0d565b600060209050601f8311600181146120045760008415611ff2578287015190505b611ffc8582611f7e565b865550612064565b601f19841661201286611dee565b60005b8281101561203a57848901518255600182019150602085019450602081019050612015565b868310156120575784890151612053601f891682611f60565b8355505b6001600288020188555050505b505050505050565b600060408201905081810360008301526120868185611b94565b90506120956020830184611ad5565b9392505050565b7f496e76616c6964205a4b2070726f6f6600000000000000000000000000000000600082015250565b60006120d2601083611b59565b91506120dd8261209c565b602082019050919050565b60006020820190508181036000830152612101816120c5565b9050919050565b7f4e487b7100000000000000000000000000000000000000000000000000000000600052603260045260246000fd5b7f4e487b7100000000000000000000000000000000000000000000000000000000600052601160045260246000fd5b6000612171826116e1565b915061217c836116e1565b925082820190508082111561219457612193612137565b5b92915050565b7f4e487b7100000000000000000000000000000000000000000000000000000000600052601260045260246000fd5b60006121d4826116e1565b91506121df836116e1565b9250826121ef576121ee61219a565b5b828206905092915050565b6000612205826116e1565b9150612210836116e1565b925082820390508181111561222857612227612137565b5b92915050565b6000612239826116e1565b9150612244836116e1565b9250828202612252816116e1565b9150828204841483151761226957612268612137565b5b509291505056fea2646970667358221220c5e91412e764c194980060da925d981618c0385a24a65da10e6413a8f93aa0a964736f6c634300081c0033",
  "linkReferences": {},
  "deployedLinkReferences": {}
}