{
  "_format": "hh-sol-artifact-1",
  "contractName": "Verifier",
  "sourceName": "contracts/verifier.sol",
  "abi": [
    {
      "inputs": [
        {
          "components": [
            {
              "components": [
                {
                  "internalType": "uint256",
                  "name": "X",
                  "type": "uint256"
                },
                {
                  "internalType": "uint256",
                  "name": "Y",
                  "type": "uint256"
                }
              ],
              "internalType": "struct Pairing.G1Point",
              "name": "a",
              "type": "tuple"
            },
            {
              "components": [
                {
                  "internalType": "uint256[2]",
                  "name": "X",
                  "type": "uint256[2]"
                },
                {
                  "internalType": "uint256[2]",
                  "name": "Y",
                  "type": "uint256[2]"
                }
              ],
              "internalType": "struct Pairing.G2Point",
              "name": "b",
              "type": "tuple"
            },
            {
              "components": [
                {
                  "internalType": "uint256",
                  "name": "X",
                  "type": "uint256"
                },
                {
                  "internalType": "uint256",
                  "name": "Y",
                  "type": "uint256"
                }
              ],
              "internalType": "struct Pairing.G1Point",
              "name": "c",
              "type": "tuple"
            }
          ],
          "internalType": "struct Verifier.Proof",
          "name": "proof",
          "type": "tuple"
        },
        {
          "internalType": "uint256[1]",
          "name": "input",
          "type": "uint256[1]"
        }
      ],
      "name": "verifyTx",
      "outputs": [
        {
          "internalType": "bool",
          "name": "r",
          "type": "bool"
        }
      ],
      "stateMutability": "view",
      "type": "function"
    }
  ],
  "bytecode": "0x6080604052348015600f57600080fd5b506114548061001f6000396000f3fe608060405234801561001057600080fd5b506004361061002b5760003560e01c8063f48d772914610030575b600080fd5b61004a6004803603810190610045919061123e565b610060565b604051610057919061129b565b60405180910390f35b600080600167ffffffffffffffff81111561007e5761007d610f1c565b5b6040519080825280602002602001820160405280156100ac5781602001602082028036833780820191505090505b50905060005b60018110156100ff578381600181106100ce576100cd6112b6565b5b60200201518282815181106100e6576100e56112b6565b5b60200260200101818152505080806001019150506100b2565b50600061010c8286610127565b0361011b576001915050610121565b60009150505b92915050565b6000807f30644e72e131a029b85045b68181585d2833e84879b9709143e1f593f0000001905060006101576102b8565b90508060800151516001865161016d9190611314565b1461017757600080fd5b60006040518060400160405280600081526020016000815250905060005b865181101561022a57838782815181106101b2576101b16112b6565b5b6020026020010151106101c457600080fd5b61021b8261021685608001516001856101dd9190611314565b815181106101ee576101ed6112b6565b5b60200260200101518a8581518110610209576102086112b6565b5b60200260200101516106bc565b61075e565b91508080600101915050610195565b50610254818360800151600081518110610247576102466112b6565b5b602002602001015161075e565b905061029a8560000151866020015161026c84610826565b856040015161027e8a60400151610826565b87606001516102908960000151610826565b89602001516108cb565b6102aa57600193505050506102b2565b600093505050505b92915050565b6102c0610de8565b60405180604001604052807f1472b0dd369f716e112c07751d0c27233043535734a5f825d9dd70626ed8a09381526020017f17c297c0f4e5b15a54307d795183cacf0d79259c6a238a330faf96c546c73d068152508160000181905250604051806040016040528060405180604001604052807f0e6e0769c74b8a8c9c2e312b6df84699970e581826d2d2e69d888e70e730fe9881526020017f2cb7b94216cb6f7434c6f9ea9b3ed618a9acd8e5af40809aa2369293eb1052ad815250815260200160405180604001604052807f12ef5bdac92f5611e89d65f082f447269bca3ca768e173fd1a19c74db032855281526020017f16f5276a4c1aa8a7a2c077fca6efdfe95dadd86abb182d947dd6d32fa311b1f18152508152508160200181905250604051806040016040528060405180604001604052807f1163f85fb7795e9ab3a2c12e2c55cc1ffe5a316a2f0fbb71d339bd47efc7a40f81526020017f0837db4cdcf2010655e8513969177c251d9b4cc00ee453a066bd9b909eafa713815250815260200160405180604001604052807f111e3f1185b538247d37d08c4410614a7f0f81094312a83d3073b6773de8281681526020017f0a54f1ed75793b05419e1ee9b2a572b173415dd1b3800b046a6e0a9e4aad71448152508152508160400181905250604051806040016040528060405180604001604052807f2f80edc2a8a62d8a82958200c3c769ca290f92425f6b05d4539e3415fa93137081526020017f27213c685a6b2a5600c7ccfb96ffc1beba263dd9b81f54899d9d6de991ea8eed815250815260200160405180604001604052807f0ee011d115eece7d8cb0c8d7f08d4d667d37368d82d7362334b414e39d861b4d81526020017f1fc601ecc0f214540bfdc1ee26f4ea7d9721eb4a18c75210f814b3aedf20952e8152508152508160600181905250600267ffffffffffffffff81111561058757610586610f1c565b5b6040519080825280602002602001820160405280156105c057816020015b6105ad610e2f565b8152602001906001900390816105a55790505b50816080018190525060405180604001604052807f0b1307de8ddbb97b76988545de387e2991bb027ca557a1994e4956af9e56476b81526020017f2fadfd88cf2d866ce6c7fb975b11125afad3fee9c061dd467d13597b43f023868152508160800151600081518110610636576106356112b6565b5b602002602001018190525060405180604001604052807f1b30f531b72a0af9189530493b0d09af7f55198fa6600b1c8bbcef3c1020e56181526020017f17bc3a2ecf4934e7b225b745c6684a4759176651df0e48298e9a3e9b00a79fcb81525081608001516001815181106106ae576106ad6112b6565b5b602002602001018190525090565b6106c4610e2f565b6106cc610e49565b8360000151816000600381106106e5576106e46112b6565b5b602002018181525050836020015181600160038110610707576107066112b6565b5b6020020181815250508281600260038110610725576107246112b6565b5b602002018181525050600060608360808460076107d05a03fa9050806000810361074b57fe5b508061075657600080fd5b505092915050565b610766610e2f565b61076e610e6b565b836000015181600060048110610787576107866112b6565b5b6020020181815250508360200151816001600481106107a9576107a86112b6565b5b6020020181815250508260000151816002600481106107cb576107ca6112b6565b5b6020020181815250508260200151816003600481106107ed576107ec6112b6565b5b602002018181525050600060608360c08460066107d05a03fa9050806000810361081357fe5b508061081e57600080fd5b505092915050565b61082e610e2f565b60007f30644e72e131a029b85045b68181585d97816a916871ca8d3c208c16d87cfd4790506000836000015114801561086b575060008360200151145b1561088f5760405180604001604052806000815260200160008152509150506108c6565b6040518060400160405280846000015181526020018285602001516108b49190611377565b836108bf91906113a8565b8152509150505b919050565b600080600467ffffffffffffffff8111156108e9576108e8610f1c565b5b60405190808252806020026020018201604052801561092257816020015b61090f610e2f565b8152602001906001900390816109075790505b5090506000600467ffffffffffffffff81111561094257610941610f1c565b5b60405190808252806020026020018201604052801561097b57816020015b610968610e8d565b8152602001906001900390816109605790505b5090508a82600081518110610993576109926112b6565b5b602002602001018190525088826001815181106109b3576109b26112b6565b5b602002602001018190525086826002815181106109d3576109d26112b6565b5b602002602001018190525084826003815181106109f3576109f26112b6565b5b60200260200101819052508981600081518110610a1357610a126112b6565b5b60200260200101819052508781600181518110610a3357610a326112b6565b5b60200260200101819052508581600281518110610a5357610a526112b6565b5b60200260200101819052508381600381518110610a7357610a726112b6565b5b6020026020010181905250610a888282610a98565b9250505098975050505050505050565b60008151835114610aa857600080fd5b6000835190506000600682610abd91906113dc565b905060008167ffffffffffffffff811115610adb57610ada610f1c565b5b604051908082528060200260200182016040528015610b095781602001602082028036833780820191505090505b50905060005b83811015610d8857868181518110610b2a57610b296112b6565b5b602002602001015160000151826000600684610b4691906113dc565b610b509190611314565b81518110610b6157610b606112b6565b5b602002602001018181525050868181518110610b8057610b7f6112b6565b5b602002602001015160200151826001600684610b9c91906113dc565b610ba69190611314565b81518110610bb757610bb66112b6565b5b602002602001018181525050858181518110610bd657610bd56112b6565b5b602002602001015160000151600160028110610bf557610bf46112b6565b5b6020020151826002600684610c0a91906113dc565b610c149190611314565b81518110610c2557610c246112b6565b5b602002602001018181525050858181518110610c4457610c436112b6565b5b602002602001015160000151600060028110610c6357610c626112b6565b5b6020020151826003600684610c7891906113dc565b610c829190611314565b81518110610c9357610c926112b6565b5b602002602001018181525050858181518110610cb257610cb16112b6565b5b602002602001015160200151600160028110610cd157610cd06112b6565b5b6020020151826004600684610ce691906113dc565b610cf09190611314565b81518110610d0157610d006112b6565b5b602002602001018181525050858181518110610d2057610d1f6112b6565b5b602002602001015160200151600060028110610d3f57610d3e6112b6565b5b6020020151826005600684610d5491906113dc565b610d5e9190611314565b81518110610d6f57610d6e6112b6565b5b6020026020010181815250508080600101915050610b0f565b50610d91610eb3565b6000602082602086026020860160086107d05a03fa90508060008103610db357fe5b5080610dbe57600080fd5b600082600060018110610dd457610dd36112b6565b5b602002015114159550505050505092915050565b6040518060a00160405280610dfb610e2f565b8152602001610e08610e8d565b8152602001610e15610e8d565b8152602001610e22610e8d565b8152602001606081525090565b604051806040016040528060008152602001600081525090565b6040518060600160405280600390602082028036833780820191505090505090565b6040518060800160405280600490602082028036833780820191505090505090565b6040518060400160405280610ea0610ed5565b8152602001610ead610ed5565b81525090565b6040518060200160405280600190602082028036833780820191505090505090565b6040518060400160405280600290602082028036833780820191505090505090565b6000604051905090565b600080fd5b600080fd5b6000601f19601f8301169050919050565b7f4e487b7100000000000000000000000000000000000000000000000000000000600052604160045260246000fd5b610f5482610f0b565b810181811067ffffffffffffffff82111715610f7357610f72610f1c565b5b80604052505050565b6000610f86610ef7565b9050610f928282610f4b565b919050565b6000819050919050565b610faa81610f97565b8114610fb557600080fd5b50565b600081359050610fc781610fa1565b92915050565b600060408284031215610fe357610fe2610f06565b5b610fed6040610f7c565b90506000610ffd84828501610fb8565b600083015250602061101184828501610fb8565b60208301525092915050565b600080fd5b600067ffffffffffffffff82111561103d5761103c610f1c565b5b602082029050919050565b600080fd5b600061106061105b84611022565b610f7c565b9050806020840283018581111561107a57611079611048565b5b835b818110156110a3578061108f8882610fb8565b84526020840193505060208101905061107c565b5050509392505050565b600082601f8301126110c2576110c161101d565b5b60026110cf84828561104d565b91505092915050565b6000608082840312156110ee576110ed610f06565b5b6110f86040610f7c565b90506000611108848285016110ad565b600083015250604061111c848285016110ad565b60208301525092915050565b6000610100828403121561113f5761113e610f06565b5b6111496060610f7c565b9050600061115984828501610fcd565b600083015250604061116d848285016110d8565b60208301525060c061118184828501610fcd565b60408301525092915050565b600067ffffffffffffffff8211156111a8576111a7610f1c565b5b602082029050919050565b60006111c66111c18461118d565b610f7c565b905080602084028301858111156111e0576111df611048565b5b835b8181101561120957806111f58882610fb8565b8452602084019350506020810190506111e2565b5050509392505050565b600082601f8301126112285761122761101d565b5b60016112358482856111b3565b91505092915050565b600080610120838503121561125657611255610f01565b5b600061126485828601611128565b92505061010061127685828601611213565b9150509250929050565b60008115159050919050565b61129581611280565b82525050565b60006020820190506112b0600083018461128c565b92915050565b7f4e487b7100000000000000000000000000000000000000000000000000000000600052603260045260246000fd5b7f4e487b7100000000000000000000000000000000000000000000000000000000600052601160045260246000fd5b600061131f82610f97565b915061132a83610f97565b9250828201905080821115611342576113416112e5565b5b92915050565b7f4e487b7100000000000000000000000000000000000000000000000000000000600052601260045260246000fd5b600061138282610f97565b915061138d83610f97565b92508261139d5761139c611348565b5b828206905092915050565b60006113b382610f97565b91506113be83610f97565b92508282039050818111156113d6576113d56112e5565b5b92915050565b60006113e782610f97565b91506113f283610f97565b925082820261140081610f97565b91508282048414831517611417576114166112e5565b5b509291505056fea264697066735822122019b6789a1220cab5d9712c16ebeafe497247dfae2e51d9928d955b745302c8af64736f6c634300081c0033",
  "linkReferences": {},
  "deployedLinkReferences": {}
}